:020000040800F2
:100000009040012045100008090200080B0200087A
:100010000F02000813020008170200080000000089
:100020000000000000000000000000001B020008AB
:100030001D02000800000000BF17010869CC00087D
:100040005F1000085F1000085F1000085F100008D4
:100050005F1000085F1000085F1000085F100008C4
:100060005F1000085F1000085F1000085F100008B4
:100070005F1000085F1000085F1000085F100008A4
:100080005F1000085F1000085F1000085F10000894
:100090005F1000085F1000085F1000085F10000884
:1000A0005F1000085F1000085F1000085F10000874
:1000B0005F1000085F1000085F1000085F10000864
:1000C0005F1000085F1000085F1000085F10000854
:1000D0005F1000085F1000085F1000085F10000844
:1000E0005F1000085F1000085F1000085F10000834
:1000F0005F1000085F1000085F1000085F10000824
:100100005F1000085F1000085F1000085F10000813
:100110007D0400085F1000085F1000085F100008F1
:100120005F1000085F1000085F1000085F100008F3
:100130005F1000085F1000085F1000085F100008E3
:100140005F1000085F1000085F1000085F100008D3
:100150005F1000085F1000085F1000085F100008C3
:100160005F1000085F1000085F1000085F100008B3
:100170005F1000085F1000085F1000085F100008A3
:100180005F1000085F100008DFF80CD011F0A8FA2B
:10019000004800479D010008904001208AB04FF4BC
:1001A000407001F0F1F84FF4E13005F040F809A893
:1001B00005F04CFC09A8072100220592CDE9062193
:1001C000089010464FF420514FF48062084BCDE95F
:1001D0000132CDE9031019200023064A06A1009040
:1001E000084809F078FE09A805F0F2FE00BFFEE716
:1001F00078020020954C0008537461737454617345
:100200006B000000C0010020704700BFFEE700BF88
:10021000FEE700BFFEE700BFFEE770477047000043
:100220003EB5002402A800214FF4FA730522CDE95F
:10023000001008460BF0BEFD14E0A14A02EBC40218
:1002400091889F4A52F8340004F0D0FF02A80021A0
:100250004FF4FA730222CDE9001008460BF0AAFD14
:10026000601CC4B2042CE8DB3EBD7CB505460E46DE
:1002700094A1974811F0FAF9B8B90020032181F34D
:100280000401944A02EB8101C1F88002924800689F
:1002900011F0E5F984B201A80023224600908E48AF
:1002A00001688E480AF040FB0DE08DA1884811F0EE
:1002B000DDF940B90120032181F30401854A02EBF5
:1002C0008101C1F880027CBD70B58AB005460E463A
:1002D000864903C9CDE90301314605A800F058FE5F
:1002E00004460D222046611CCCB205A90A540A22FC
:1002F0002046611CCCB205A90A54BDF81010039821
:1003000004F074FF214605A804F070FF09A800213D
:10031000C8230A46CDE9001008460BF04BFD3146D4
:10032000284604F063FF0AB070BD0EB50025002416
:10033000002001900026002704F031FF04F0D4FED5
:10034000FFF76EFF4FF4006269496A4800F050FC05
:1003500081E002AB0022114610460AF06BFC00203F
:1003600006460446054607468021594811F06CF9B7
:100370006FE001A95F4800F042FCBDF808000028CA
:1003800047D1E6B9802C1ADA9DF8040021280ADB4F
:100390009DF804007E2806DC9DF804202046611CA0
:1003A0008CB24B490A54072C48D1224652A14848E6
:1003B00011F06AF9002841D1012600243EE0012E07
:1003C00015D1802C13DA9DF804202046611C8CB2D4
:1003D0003F490A549DF804003A282FD1601EC1B24B
:1003E0003B4800F0F3FD384487B2022626E0022E97
:1003F00024D19DF804202846691C8DB240490A5436
:10040000BD421BD10026002429463EA011F008FA67
:1004100014E0BDF8080047F2D92188420ED145B159
:1004200002A800232A463649009038480AF07CFA90
:1004300003E021462648FFF718FF0BE03448006828
:10044000AD21B0FBF1F802AB0022114640460AF0A4
:10045000F1FB8EE700BF7CE70EB500240DE002A89B
:10046000002301AA19460090184609F0C8FF044667
:10047000BDF804102046FFF727FFF0E708B505F0A8
:1004800075FB40F22551234803F01DFCA0B140F25A
:100490002551204803F0ABFC1648006860B11D48A8
:1004A000001D0088C1B2134800F0C0FB6A4600215D
:1004B00019480AF0BDFF00BF05F069FB08BD000048
:1004C000541B0108302C434F4E4E4543540000004E
:1004D00044B300200000424200000020C4B30020CA
:1004E000302C434C4F53454400000000741B01085E
:1004F00044AB002030AB00202B4950442C302C0062
:100500000000006825640D0A000000007CBC00208B
:10051000DC1B0108004C004078A200203EB50446D8
:10052000082C3BD2DFE804F03A060405121C263002
:1005300000BF00BF02A800230090FE480288FE48CA
:100540000168FE4800680AF0EFF928E002A80023DD
:100550000F22FBA10090F94800680AF0E5F91EE0BF
:1005600002A800231022FAA10090F44800680AF0C3
:10057000DBF914E002A800230622FAA10090EF485C
:1005800000680AF0D1F90AE002A800230822F7A1C6
:100590000090EA4800680AF0C7F900E000BF00BF19
:1005A00002A800214FF4FA730A46CDE9001008466C
:1005B0000BF000FC02A800230D22EFA10090DF4801
:1005C00000680AF0B1F93EBD1CB500256AE00024C0
:1005D000002501A80023D74A19460090184609F0C3
:1005E0000EFFD5490860096848190322E6A111F0F9
:1005F0004BF838B9CF480088401ECF490968085CDD
:100600003B2803D00220FFF789FF4BE0E81C85B2AE
:1006100000BFDE4B03EB04135A7ADC4B03EB0413ED
:100620005968C54B1B68581911F02EF870BBD74894
:1006300000EB0410007AD6490978084018B104206C
:10064000FFF76CFF27E0D14800EB0410007AD14996
:100650000978084018B10520FFF760FF1BE0CB4880
:1006600000EB0410C06880B1B24B1B885B1B99B2D1
:10067000C64B03EB04135B7A2B44AF4E36689819D4
:10068000C24B03EB0413DA68904704E0601CC0B26D
:1006900004460828BDDB00BF082C02D10320FFF769
:1006A0003DFF00BF93E770B590B005460E460024AD
:1006B00001A80EF01BF9044607E004EB840001AA30
:1006C00002EB4001B4A011F0ABF8201EA4F101012F
:1006D000CCB2F2D1032181F30401B14A02EB8101D2
:1006E000C1F88002042181F3040102EB8101C1F809
:1006F00080020120092181F30401AA4A02EB810151
:10070000C1F8800210B070BD10B50022032383F33E
:100710000403A34C04EB8303C3F8802201230422C7
:1007200082F3040204EB8202C2F880320022092321
:1007300083F304039B4C04EB8303C3F8802210BDB6
:100740002DE9F04395B004460D4617461E464FF07E
:10075000000995A207CA8DE80700DFF8588206A8AD
:100760000EF0C4F881469DF803004844C0B28DF8ED
:100770000300012290A140460FF0ECF90A226946DD
:100780008E480FF015FA3A468DA103A811F058F8DB
:1007900005AB042203A989480FF003FC324688A167
:1007A00003A811F04DF805AB062203A983480FF00A
:1007B000F8FB05AB2A46214680480FF0F2FB7F4844
:1007C0000FF034FD002015B0BDE8F0832DE9F041B5
:1007D00086B004468846002005900490002607272E
:1007E0000120032181F304016D4A02EB8101C1F86C
:1007F00080020020042181F3040102EB8101C1F891
:1008000080020021092080F30400664A02EB800088
:10081000C0F8801203A8002307226AA1009047486D
:1008200000680AF081F8032268A1204610F02CFF2E
:1008300028B905AA0421E01C00F06CFB28B90620A9
:10084000FFF76CFE06B0BDE8F081052260A104F15F
:10085000080010F019FF30B904AA082104F10D00B6
:1008600000F058FB18B90720FFF758FEEAE703A885
:1008700000214FF4FA730A46CDE9001008460BF048
:1008800099FA03A80023052253A100902B48006881
:100890000AF04AF803A8002302AA19460090184655
:1008A00009F0ADFD0546BDF80810284600F0D6F960
:1008B000BDF8141088420AD0BDF80820BDF8141005
:1008C00047A010F0ADFF0620FFF728FEBAE703A807
:1008D00000231A4619460090444807F0D1FDBDF8A0
:1008E0001420049BBDF808102846FFF729FF03AA2F
:1008F00000213E4807F0C2FF00BFA3E710B5002269
:10090000032383F30403264C04EB8303C3F8802200
:100910000123042282F3040204EB8202C2F8803233
:100920000122092383F304031E4C04EB8303C3F861
:10093000802210BD8A0000208C00002004000020CE
:10094000526561642070726F74656374696F6E00C4
:1009500057726974652070726F74656374696F6E25
:1009600000000000435243455252000053414444AA
:1009700052455252000000000D0A52455320455284
:10098000524F450D0A000000494150000800002068
:10099000880000208900002025730D0A0000000057
:1009A0000000424200004342303A50302E42494E4D
:1009B00000000000A4DF0020303A0000D4EF002047
:1009C00025780000574149542E2E2E0043524300F3
:1009D0005341444452000000524541445900000034
:1009E00025580D0A25640D0A0000000004000120AE
:1009F00010B50122032383F30403694C04EB830342
:100A0000C3F880220023042282F3040204EB820252
:100A1000C2F880320122092383F30403614C04EB02
:100A20008303C3F8802210BD10B50122032383F392
:100A300004035B4C04EB8303C3F8802201230422EC
:100A400082F3040204EB8202C2F8803200220923FE
:100A500083F30403534C04EB8303C3F8802210BDDB
:100A60003EB504460D4602224FA1204610F00CFE72
:100A700000BB02A800230F22AFF23C1100904B48AC
:100A8000006809F051FF01204949087002A80021BF
:100A90004FF4FA730A46CDE9001008460BF08AF9C4
:100AA00002A800230A2243A100904048006809F0F0
:100AB0003BFF24E0022242A1204610F0E5FDF0B900
:100AC00002A8002312223FA100903848006809F0D4
:100AD0002BFF00203649087002A800214FF4FA735A
:100AE0000A46CDE9001008460BF064F902A800237D
:100AF0000A2230A100902D48006809F015FF3EBD84
:100B00003EB504460D46022227A1204610F0BCFD4A
:100B100000BB02A800231022AFF2CC1100902348A2
:100B2000006809F001FF02202B49087002A800218B
:100B30004FF4FA730A46CDE9001008460BF03AF973
:100B400002A800230A221BA100901848006809F09F
:100B5000EBFE24E002221AA1204610F095FDF0B928
:100B600002A8002313221DA100901048006809F07C
:100B7000DBFE00201849087002A800214FF4FA7328
:100B80000A46CDE9001008460BF014F902A800232C
:100B90000A2208A100900548006809F0C5FE3EBD84
:100BA00000004242000043423D31000004000020AA
:100BB000880000200D0A524553204F4B0D0A0000BB
:100BC0003D300000556E20526561642070726F7474
:100BD000656374696F6E000089000020556E2057B0
:100BE000726974652070726F74656374696F6E00EA
:100BF0000160002343608360C2600361704710B5E9
:100C00000246106980B1D2E90003C05C08705068E8
:100C1000401CD368B0FBF3F403FB14005060106970
:100C2000401E1061012010BD0020FCE710B50246F7
:100C3000D2E9033098420FD293681068C15490688B
:100C4000401CD368B0FBF3F403FB14009060106900
:100C5000401C1061012010BD0020FCE730B50246A9
:100C60004FF6FF7001B9012111E0147860400023B4
:100C70000AE000F0010424B140104AF2010460408F
:100C800000E040105C1CE3B2082BF2DB521C0C1E8F
:100C9000A1F10101E9D130BD0A460021DBE0D30B0F
:100CA000002B75D0102971D2DFE801F0080F161D56
:100CB000242B323940464C52585E646A038823F430
:100CC000004303F50043038060E0038823F480437E
:100CD00003F58043038059E0038823F4005303F5B0
:100CE0000053038052E0038823F4805303F58053BC
:100CF00003804BE0038823F4006303F50063038063
:100D000044E0038823F4806303F5806303803DE0BF
:100D1000038823F4007303F50073038036E003882F
:100D200023F4807303F5807303802FE0038823F09E
:100D300080038033038029E0038823F0400340339D
:100D4000038023E0038823F02003203303801DE089
:100D5000038823F010031033038017E0038823F087
:100D600008030833038011E0038823F004031B1DEC
:100D700003800BE0038823F002039B1C038005E043
:100D8000038823F001035B1C038000BF5DE0FFE7E5
:100D9000102959D2DFE801F0080D12171C21262B6B
:100DA00030353A3F44494E53038823F400430380CF
:100DB0004AE0038823F48043038045E0038823F45A
:100DC0000053038040E0038823F4805303803BE01A
:100DD000038823F40063038036E0038823F48063F0
:100DE000038031E0038823F4007303802CE0038840
:100DF00023F48073038027E0038823F080030380BB
:100E000022E0038823F0400303801DE0038823F0E1
:100E10002003038018E0038823F01003038013E00D
:100E2000038823F0080303800EE0038823F0040303
:100E3000038009E0038823F00203038004E00388B1
:100E400023F00103038000BF00BF4FF6FF7303EAE6
:100E500042024B1CD9B21029FFF621AF70472DE991
:100E6000F04704460D46164698464FF0000AD14614
:100E70000127C5F11000B04202DAC5F11000C6B278
:100E8000AA46BAF1000F0FDD07E009EB07001FFAD1
:100E900080F94FF6FF7000EA4707BAF10000AAF1A7
:100EA000010101F0FF0AF0D1564884421DD0564896
:100EB00084421AD05548844217D05548844214D0F1
:100EC0005448844211D0544884420ED0534884423E
:100ED0000BD05348844208D05248844205D052482F
:100EE000844202D05148844200D103E0652150A0E1
:100EF00003F089FF61694FF6FF70B040A84040EAF7
:100F0000090001406161606908FA05F10843606108
:100F1000BDE8F08730B503460C460021082C01DD02
:100F2000002030BD30E0585C39280BDC585C30289C
:100F300008DB1068000110605D5C303D10682843DC
:100F400010601FE0585C61280BDB585C662808DCE9
:100F5000106800011060585C57381568054315602B
:100F600010E0585C41280BDB585C462808DC106810
:100F700000011060585C373815680543156001E0C2
:100F80000020CEE7481CC1B2A142CCDB0120C8E75B
:100F9000F0B505460C4600260A2C04D204F13000B8
:100FA00028700120F0BD0A20B4FBF0F7394628462E
:100FB000FFF7EEFF401CC6B20A20B4FBF0F100FBC5
:100FC00011403030711E68543046EBE710B50246D0
:100FD000002306E012F8010B3038184400EB8000C3
:100FE0004300481EC0B2011E05D01078392802DC2B
:100FF00010783028EEDA09B1002010BD10783038B2
:101000001844FAE7000002400004024000080240D1
:10101000000C024000100240001402400018024080
:10102000001C024000200240002402400028024030
:101030002E2E5C436F6D6D6F6E5C636F6D6D6F6EAA
:101040002E6300000648804706480047FEE7FEE79B
:10105000FEE7FEE7FEE7FEE7FEE7FEE7FEE7FEE768
:1010600023120008890100080CB5002001900090AF
:10107000AE48006840F48030AC49086000BFAB481F
:10108000006800F4003000900198401C0190009826
:1010900018B90198B0F5A04FF1D1A448006800F448
:1010A000003010B10120009001E000200090009875
:1010B000012846D19D484030006840F080509B494F
:1010C000403108609A48006840F440409849086000
:1010D000964808300068954908310860084600685D
:1010E00040F4004008600846006840F4A0500860E2
:1010F0009048091F0860081F006840F08070091FB1
:10110000086000BF8948006800F000700028F9D02E
:1011100040F205708849086084480830006820F073
:1011200003008249083108600846006840F0020068
:10113000086000BF7D480830006800F00C000828F7
:10114000F8D10CBD79483030006840F0780077491C
:10115000303108604FF0CC10784908604FF0CC3146
:1011600076482038416276487449203908607548CD
:101170007249183908600020091F08606F49143946
:1011800008604FF0CC307049086201466E484162F9
:101190004FF0AA306C490860C01788600020486092
:1011A000C8606A486A490860010469482038416299
:1011B00068486749203908606748654918390860F8
:1011C0000020091F08606249143908605F486349BC
:1011D00008604FF4406161482038416260485F49CF
:1011E000203908605F485D49183908600020091FF0
:1011F00008605A49143908604C483830006840F09B
:1012000001004A493831086041F211004FF0204195
:10121000086140F2035048616FF070405249086025
:10122000704710B55148006840F470004F4908609D
:101230003E48006840F001003C49086000203B49FE
:101240000831086039480068494908403749086052
:101250004848091D0860081F006820F48020091F05
:101260000860002031490C310860FFF76BFFFFF781
:10127000FBFE4FF000603D498039086010BD70B53D
:1012800000200022022300240221284D08352D6869
:1012900005F00C0020B1042806D0082834D107E05E
:1012A000354D364E356033E0354D344E35602FE0E8
:1012B0001E4D2D1D2D68C5F380541C4D2D1D2D6810
:1012C00005F03F0154B12E4DB5FBF1F5174E361D1B
:1012D0003668C6F3881605FB06F209E0264DB5FB15
:1012E000F1F5124E361D3668C6F3881605FB06F278
:1012F0000E4D2D1D2D68C5F301456D1C6B00B2FB15
:10130000F3F51E4E356003E01B4D1C4E356000BFEB
:1013100000BF064D08352D68C5F30315194E705DE5
:10132000164D2D68C540154E356070BD0038024021
:101330000070004008544007003C0240200C02406E
:101340000A0AAAAA0F0FFFFF00100240CCCCCC0063
:1013500020140240AA0A00AAFF0F00FF2018024032
:10136000AA0A2000FF0F3000140100A088ED00E061
:10137000FFFFF6FE103000240024F400900000204F
:1013800000127A009400002010B50446B4F5E06F16
:101390000BD0B4F5C06F08D0B4F5A06F05D0B4F58C
:1013A000806F02D0B4F5407F00D103E079215FA0C7
:1013B00003F029FD644820436449086010BD2DE90D
:1013C000F0410446002500270F26E07810B1E078B0
:1013D000012800D103E08D2154A003F014FD6078B2
:1013E000102800DA03E08E2150A003F00CFDA07855
:1013F000102800DA03E08F214CA003F004FDE07810
:1014000018B35248006800F4E060C0F5E060C0F333
:101410000725C5F10400C7B22E416078B840C5B2B7
:10142000A078304005432807050E494821784554E7
:10143000207800F01F01012088402178491189009F
:1014400001F1E021C1F8000109E0207800F01F015E
:10145000012088403F492278521141F82200BDE81E
:10146000F08170B504460D46B4F1005F02D0B4F1CE
:10147000006F00D103E0B7212CA003F0C4FC364874
:10148000854200D203E0B82128A003F0BCFC334918
:1014900005EA010020432D49091F086070BD70B5A1
:1014A00004460D46102C03D0042C01D0022C00D190
:1014B00003E0CA211DA003F0A6FC0DB1012D00D14F
:1014C00003E0CB2119A003F09EFC3DB11F48001D95
:1014D000006820431D49091D086006E01B48001DE7
:1014E0000068A0431949091D086070BD10B5044685
:1014F000042C01D0601D00B903E0E2210BA003F031
:1015000082FC042C08D14FF0E020006940F0040078
:101510004FF0E021086107E04FF0E020006920F083
:1015200004004FF0E021086110BD00002E2E5C5336
:10153000544D333246345F46574C49425C737263B4
:101540005C6D6973632E63000000FA050CED00E02A
:1015500000E400E080E100E0FFFF0F0080FFFF1FDC
:1015600010B50446FC4884421DD0FC4884421AD081
:10157000FB48844217D0FB48844214D0FA48844286
:1015800011D0FA4884420ED0F94884420BD0F94871
:10159000844208D0F848844205D0F848844202D0FA
:1015A000F748844200D103E08221F6A003F02BFC2F
:1015B000E948844208D10121084601F047FA002198
:1015C000012001F043FA76E0E448844208D1012189
:1015D000022001F03BFA0021022001F037FA6AE014
:1015E000DF48844208D10121042001F02FFA0021B4
:1015F000042001F02BFA5EE0DA48844208D1012190
:10160000082001F023FA0021082001F01FFA52E01F
:10161000D548844208D10121102001F017FA002199
:10162000102001F013FA46E0D048844208D101218D
:10163000202001F00BFA0021202001F007FA3AE007
:10164000CB48844208D10121402001F0FFF900215C
:10165000402001F0FBF92EE0C648844208D1012168
:10166000802001F0F3F90021802001F0EFF922E061
:10167000C148844208D10121801501F0E7F9002119
:10168000A01501F0E3F916E0BC48844208D101211D
:10169000401501F0DBF90021601501F0D7F90AE0EF
:1016A000B748844207D10121001501F0CFF900218C
:1016B000201501F0CBF910BD2DE9F04104460D468F
:1016C00000260027B046A44884421DD0A348844287
:1016D0001AD0A348844217D0A248844214D0A2480A
:1016E000844211D0A14884420ED0A14884420BD03C
:1016F000A048844208D0A048844205D09F48844234
:1017000002D09F48844200D103E0CF219DA003F086
:101710007AFB288880B200B103E0D02199A003F0C1
:1017200072FB287940B12879012805D02879022850
:1017300002D02879032800D103E0D12191A003F041
:1017400062FBE87928B1E879012802D0E87902281B
:1017500000D103E0D2218BA003F055FB002657E017
:10176000012000FA06F7286800EA0708B8454ED1BC
:10177000206872000321914088432060287971001D
:1017800088402168084320602879012802D0287900
:10179000022830D1687940B16879012805D068798C
:1017A000022802D06879032800D103E0E42175A063
:1017B00003F029FBA0687200032191408843A060D8
:1017C000687971008840A1680843A060A87910B1C9
:1017D000A879012800D103E0EB216AA003F013FBF4
:1017E00061680120B040814361606168A879B040C0
:1017F00080B201436160E068720003219140884338
:10180000E060E87971008840E1680843E060761C98
:10181000102EA5D3BDE8F0814FF6FF7101600021C5
:10182000017141718171C171704738B504460D462F
:101830004FF480300090484884421DD0474884428D
:101840001AD04748844217D04648844214D04648AC
:10185000844211D0454884420ED0454884420BD082
:101860004448844208D04448844205D043488442D6
:1018700002D04348844200D104E04FF48D7141A06E
:1018800003F0C1FAA8B200B104E040F21B113DA080
:1018900003F0B9FA0098284300900098E061E561F0
:1018A0000098E061E0690090E069009038BD70B593
:1018B00005460C460026284885421DD0274885420B
:1018C0001AD02748854217D02648854214D026488A
:1018D000854211D0254885420ED0254885420BD03F
:1018E0002448854208D02448854205D023488542B3
:1018F00002D02348854200D104E04FF4A47121A016
:1019000003F081FA012C25D0022C23D0042C21D005
:10191000082C1FD0102C1DD0202C1BD0402C19D0EF
:10192000802C17D0B4F5807F14D0B4F5007F11D08F
:10193000B4F5806F0ED0B4F5006F0BD0B4F5805FB6
:1019400008D0B4F5005F05D0B4F5804F02D0B4F5EF
:10195000004F2BD130E000000000024000040240A4
:1019600000080240000C0240001002400014024037
:1019700000180240001C02400020024000240240E7
:10198000002802402E2E5C53544D333246345F46BD
:10199000574C49425C7372635C73746D33326634C6
:1019A00078785F6770696F2E6300000040F249111C
:1019B000AFF2300003F027FA2869204008B1012671
:1019C00000E00026304670BD10B50446FE48844253
:1019D0001DD0FE4884421AD0FD48844217D0FD48ED
:1019E000844214D0FC48844211D0FC4884420ED07A
:1019F000FB4884420BD0FB48844208D0FA4884421A
:101A000005D0FA48844202D0F948844200D105E06A
:101A10004FF4B071AFF2940003F0F5F9206980B291
:101A200010BD70B505460C460026E74885421DD01E
:101A3000E64885421AD0E648854217D0E5488542F7
:101A400014D0E548854211D0E44885420ED0E448E0
:101A500085420BD0E348854208D0E348854205D053
:101A6000E248854202D0E248854200D105E040F2DA
:101A70007311AFF2F00003F0C6F9012C25D0022C4F
:101A800023D0042C21D0082C1FD0102C1DD0202CAA
:101A90001BD0402C19D0802C17D0B4F5807F14D0E7
:101AA000B4F5007F11D0B4F5806F0ED0B4F5006F9F
:101AB0000BD0B4F5805F08D0B4F5005F05D0B4F565
:101AC000804F02D0B4F5004F00D105E04FF4BA7159
:101AD000AFF2501003F097F96869204008B1012671
:101AE00000E00026304670BD10B50446B64884427A
:101AF0001DD0B64884421AD0B548844217D0B548A4
:101B0000844214D0B448844211D0B44884420ED0E8
:101B1000B34884420BD0B348844208D0B2488442D0
:101B200005D0B248844202D0B148844200D105E0D9
:101B300040F28B11AFF2B41003F065F9606980B226
:101B400010BD70B504460D469F4884421DD09F4885
:101B500084421AD09E48844217D09E48844214D0B2
:101B60009D48844211D09D4884420ED09C488442B6
:101B70000BD09C48844208D09B48844205D09B48A7
:101B8000844202D09A48844200D105E040F29F117D
:101B9000AFF2102003F037F9A8B200B105E04FF41E
:101BA000D071AFF2202003F02EF9258370BD70B5FF
:101BB00004460D46844884421DD0844884421AD08D
:101BC0008348844217D08348844214D08248844298
:101BD00011D0824884420ED0814884420BD0814883
:101BE000844208D08048844205D08048844202D094
:101BF0007F48844200D105E04FF4DA71AFF27C20D7
:101C000003F001F9A8B200B105E040F2B511AFF25E
:101C10008C2003F0F8F8658370BD70B505460C465E
:101C20001646694885421DD0684885421AD06848E2
:101C3000854217D06748854214D06748854211D045
:101C4000664885420ED0664885420BD0654885427D
:101C500008D06548854205D06448854202D0644872
:101C6000854200D105E04FF4E571AFF2E82003F0C2
:101C7000CAF8012C25D0022C23D0042C21D0082C0A
:101C80001FD0102C1DD0202C1BD0402C19D0802C04
:101C900017D0B4F5807F14D0B4F5007F11D0B4F51F
:101CA000806F0ED0B4F5006F0BD0B4F5805F08D014
:101CB000B4F5005F05D0B4F5804F02D0B4F5004F05
:101CC00000D105E040F2CB11AFF2483003F09BF8B1
:101CD0000EB1012E00D105E04FF4E671AFF25C3099
:101CE00003F091F80EB12C8300E06C8370BD70B5E9
:101CF00004460D46344884421DD0344884421AD0EC
:101D00003348844217D03348844214D03248844246
:101D100011D0324884420ED0314884420BD0314831
:101D2000844208D03048844205D03048844202D0F2
:101D30002F48844200D105E040F2E311AFF2BC30FD
:101D400003F061F8656170BD70B504460D461E482C
:101D500084421DD01D4884421AD01D48844217D0A9
:101D60001C48844214D01C48844211D01B48844231
:101D70000ED01B4884420BD01A48844208D01A481F
:101D8000844205D01948844202D01948844200D1C7
:101D900005E040F2F311AFF2144003F034F860694B
:101DA0006840606170BD2DE9F04106460D4614465D
:101DB0000027B8460448864234D00448864231D0D1
:101DC000034886422ED015E0000002400004024085
:101DD00000080240000C02400010024000140240C3
:101DE00000180240001C0240002002400024024073
:101DF000002802405148864214D05148864211D0F2
:101E0000504886420ED0504886420BD04F488642FA
:101E100008D04F48864205D04E48864202D04E48F0
:101E2000864200D105E040F24921AFF2A84002F01D
:101E3000EAFFEDB1012D1BD0022D19D0032D17D0D3
:101E4000042D15D0052D13D0062D11D0072D0FD040
:101E5000082D0DD0092D0BD00A2D09D00B2D07D040
:101E60000C2D05D00D2D03D00E2D01D00F2D00D13E
:101E700005E040F24A21AFF2F44002F0C4FFA4B3FF
:101E8000092C32D08CB384B37CB374B3012C2CD026
:101E90002BD0022C29D028D027D0032C25D0042CDD
:101EA00023D022D021D0052C1FD01ED0092C1CD02D
:101EB000062C1AD0092C18D0072C16D015D014D007
:101EC000082C12D011D010D0092C0ED00DD00A2C15
:101ED0000BD00AD00B2C08D00C2C06D005D00D2C22
:101EE00003D00F2C01D00C2C00D105E040F24B2187
:101EF000AFF2705002F087FF6807C00E04FA00F7D7
:101F0000E91006F1200050F821006907CA0E0F21E0
:101F100091408843EA1006F1200141F82200E910BF
:101F200006F1200050F8210040EA0708E91006F108
:101F3000200040F82180BDE8F0810000000C024044
:101F4000001002400014024000180240001C024031
:101F5000002002400024024000280240FB480068A4
:101F600040F00100F94908600020F8490831086094
:101F7000F6480068F6490840F4490860F548091D2C
:101F80000860F548F14984310860F2481038091DAD
:101F90000860EE48006820F48020EC4908600020CA
:101FA000EA490C310860E9498C310860704710B586
:101FB00004461CB1012C01D0052C00D104E04FF4E3
:101FC0008571E6A002F01FFF0020E049891C08701F
:101FD0000846047010BD2DE9F04104460025002696
:101FE0000027212C19D0312C17D0392C15D0412C99
:101FF00013D0612C11D0792C0FD07A2C0DD07B2CE2
:102000000BD07C2C09D07D2C07D07E2C05D07F2CCA
:1020100003D03B2C01D03D2C00D104E040F68D01D3
:10202000CEA002F0F0FE6511012D02D1C74806686E
:1020300008E0022D03D1C5487030066802E0C348AD
:102040007430066804F01F050120A840304008B134
:10205000012700E000273846BDE8F08138B50020B0
:1020600000900024002500BF3120FFF7B4FF054693
:102070000098401C00900098B0F5A04F01D0002DB2
:10208000F2D03120FFF7A7FF08B1012400E00024BF
:10209000204638BD70B5044600251F2C00DC04E046
:1020A0004FF4A171ADA002F0AEFEA848056825F07E
:1020B000F80545EAC405056070BD10B504460CB1CD
:1020C000012C00D104E040F26511A4A002F09BFEB7
:1020D000AC48046010BD10B504461CB1012C01D001
:1020E000042C00D104E04FF4BF719CA002F08BFEE1
:1020F00000209649703108700870012C02D0042C21
:102100000AD104E0012091497031087005E00520F2
:102110008E497031087000E000BF00BF10BD10B5DF
:1021200004460CB1012C00D104E04FF4D3718BA014
:1021300002F069FE9448046010BD2DE9F0410546A7
:102140000F4616461C46DDF8188015B1B5F5800F10
:1021500000D104E040F2D11180A002F054FE3F2FE4
:1021600000D804E04FF4E9717CA002F04CFEC02ED0
:1021700003D3B6F5D87F00D804E040F2D31177A09E
:1021800002F041FE022C05D0042C03D0062C01D015
:10219000082C00D104E04FF4EA7170A002F033FE85
:1021A000B8F1040F03D3B8F10F0F00D804E040F2E8
:1021B000D5116AA002F027FE47EA86100121C1EB83
:1021C000540140EA0140284340EA08605F49091D84
:1021D0000860BDE8F08110B504460CB1012C00D1B7
:1021E00004E04FF4F4715DA002F00DFE6548046652
:1021F00010BD70B505460C46C02D03D3B5F5D87F8C
:1022000000D804E040F2062154A002F0FCFD022CAC
:1022100002D3072C00D804E040F207214FA002F0BF
:10222000F2FDA80140EA047048498431086070BD9D
:1022300010B504460CB1012C00D104E040F261213C
:1022400046A002F0E0FD4F48846610BD70B504461C
:102250000E461546C02C03D3B4F5D87F00D804E051
:1022600040F27E213DA002F0CEFD022D02D3072DCB
:1022700000D804E040F27F2138A002F0C4FDA001A4
:1022800040EA066040EA057030498831086070BD58
:1022900010B504460CB1012C00D104E04FF42471B8
:1022A0002EA002F0B0FD3748046710BD10B50446FB
:1022B0000CB1012C00D104E040F2A22127A002F0D1
:1022C000A2FD3048C46410BD70B505460C4600261A
:1022D00045B1B5F5001F05D0B5F5800F02D0B5F5B5
:1022E000C00F00D104E040F2BD211CA002F08BFD24
:1022F0005CB1B4F1806F08D0B4F1A06F05D0B4F137
:10230000C06F02D0B4F1E06F00D104E040F2BE2112
:1023100012A002F078FD0D480830066826F0EC6641
:1023200045EA0400064309480830066070BD70B5F0
:1023300005460C46002645B1B5F1804F05D0B5F1F4
:10234000004F02D0B5F1404F20D125E000380240C7
:10235000FFFFF6EA10300024003000202E2E5C53E0
:10236000544D333246345F46574C49425C73726376
:102370005C73746D3332663478785F7263632E6396
:102380000000000000004742800E474240F2E32177
:10239000AFF2380002F037FD5CB1B4F1005F08D055
:1023A000B4F1205F05D0B4F1405F02D0B4F1605FBA
:1023B00000D105E04FF43971AFF2600002F023FD67
:1023C000FB48066826F0784645EA04000643F848CC
:1023D000066070BD70B5044600251CB1012C01D00B
:1023E000022C00D105E040F2A631AFF2900002F0DD
:1023F0000AFDEF48056825F003052543056070BD1B
:10240000EB48006800F00C00704770B504460025EA
:102410007CB1802C0DD0902C0BD0A02C09D0B02CEE
:1024200007D0C02C05D0D02C03D0E02C01D0F02C4C
:1024300000D105E040F2DB31AFF2E00002F0E3FC56
:10244000DB48056825F0F0052543056070BD70B5D3
:10245000044600255CB1B4F5805F08D0B4F5A05FF8
:1024600005D0B4F5C05F02D0B4F5E05F00D105E05F
:1024700040F2FB31AFF21C1002F0C5FCCC480568FD
:1024800025F4E0552543056070BD70B50446002570
:102490005CB1B4F5805F08D0B4F5A05F05D0B4F5A9
:1024A000C05F02D0B4F5E05F00D105E040F21A4110
:1024B000AFF2581002F0A7FCBD48056825F460454E
:1024C00045EAC405056070BDF0B500210022002476
:1024D000022500260223B64F3F6807F00C0121B108
:1024E000042905D0082937D105E0B24F076036E04E
:1024F000B14F076033E0AE4F3F1F3F68C7F38056D0
:10250000AB4F3F1F3F6807F03F036EB1AA4FB7FBC9
:10251000F3F7DFF89CC2ACF1040CDCF800C0CCF39C
:10252000881C07FB0CF40CE0A24FB7FBF3F7DFF8B5
:1025300080C2ACF1040CDCF800C0CCF3881C07FBB3
:102540000CF49B4F3F1F3F68C7F301477F1C7D0082
:10255000B4FBF5F7076002E0964F076000BF00BFCD
:10256000934F3F6807F0F0010909944F7A5C0768C0
:10257000D74047608E4F3F6807F4E051890A8F4F7C
:102580007A5C4768D7408760894F3F6807F46041AD
:10259000490B8A4F7A5C4768D740C760F0BD70B579
:1025A00004460025B4F5807F5CD0B4F5007F59D097
:1025B0008348844256D08348844253D08248844220
:1025C00050D0824884424DD0814884424AD08148CC
:1025D000844247D08048844244D08048844241D0DD
:1025E0007F4884423ED07F4884423BD07E4884422C
:1025F00038D07E48844235D07D48844232D07D48F0
:1026000084422FD07C4884422CD07C48844229D0FC
:102610007B48844226D07B48844223D07A48844237
:1026200020D07A4884421DD0794884421AD0794813
:10263000844217D07848844214D07848844211D01C
:10264000774884420ED0774884420BD07648844243
:1026500008D07648844205D07548844202D0754837
:10266000844200D105E040F2CB41AFF2103002F0DD
:10267000CAFB04F44070B0F5407F09D14C480568AE
:1026800025F4F8156C4904EA010005434848056043
:10269000474868300068C4F30B0108434449683177
:1026A000086070BD10B504460CB1012C00D105E0E6
:1026B00040F2E941AFF25C3002F0A5FB5F480460F4
:1026C00010BD10B504460CB1012C00D105E040F25C
:1026D000FA41AFF2783002F096FB5848001D0460D2
:1026E00010BD10B504460CB1012C00D105E040F23C
:1026F0000B51AFF2983002F086FB5148046010BDD8
:1027000070B504460025012C02D3202C00D805E02A
:1027100040F22251AFF2BC3002F075FB2448843005
:10272000056825F01F05601E0543214884300560BB
:1027300070BD70B504460025012C02D3202C00D8B2
:1027400005E040F24251AFF2EC3002F05CFB184879
:102750008430056825F4F855601E45EA00251448C4
:102760008430056070BD70B504460025B4F5801F47
:1027700003D014B1B4F5001F00D105E040F266515A
:10278000AFF2284002F03FFB09488430056825F489
:1027900040152543056070BD70B504460025B4F5AD
:1027A000800F03D014B1B4F5000F4BD150E00000FE
:1027B000083802400024F40000127A00A40000202F
:1027C00000030200000303000003040000030500EF
:1027D00000030600000307000003080000030900CF
:1027E00000030A0000030B0000030C0000030D00AF
:1027F00000030E0000030F0000031000000311008F
:10280000000312000003130000031400000315006E
:10281000000316000003170000031800000319004E
:1028200000031A0000031B0000031C0000031D002E
:1028300000031E0000031F00FFFCFF0F3C0E474279
:102840005C01474240F28A51AFF2F04002F0DBFAFD
:10285000F948056825F440052543056070BD70B54D
:102860000446002544B1B4F5803F05D0B4F5003FDF
:1028700002D0B4F5403F00D105E040F2AB51AFF2D9
:10288000245002F0C0FAEC48056825F44035254391
:10289000056070BD10B504460CB1012C00D105E0F7
:1028A00040F2CE51AFF24C5002F0ADFAE348046072
:1028B00010BD70B504460D46E148204008B904B18A
:1028C00005E040F2F951AFF26C5002F09CFA0DB104
:1028D000012D00D105E040F2FB51AFF2805002F033
:1028E00092FA3DB1D4485C3800682043D2495C3943
:1028F000086006E0D0485C380068A043CE495C39E7
:10290000086070BD70B504460D4624F0F10008B9AA
:1029100004B105E040F21961AFF2C05002F073FA61
:102920000DB1012D00D105E040F21A61AFF2D45093
:1029300002F069FA3DB1C048583800682043BE49EA
:102940005839086006E0BC4858380068A043BA49C6
:102950005839086070BD70B504460D4624F001007A
:1029600008B904B105E040F23561AFF2106002F041
:102970004AFA0DB1012D00D105E040F23661AFF207
:10298000246002F040FA3DB1AB485438006820435F
:10299000A9495439086006E0A74854380068A043A4
:1029A000A5495439086070BD70B504460D46A54868
:1029B000204008B904B105E040F26961AFF26460FB
:1029C00002F021FA0DB1012D00D105E040F26A615B
:1029D000AFF2786002F017FA3DB197484C380068C2
:1029E000204395494C39086006E093484C3800680C
:1029F000A04391494C39086070BD70B504460D463E
:102A00009148204008B904B105E040F29661AFF268
:102A1000B46002F0F8F90DB1012D00D105E040F2EB
:102A20009761AFF2C86002F0EEF93DB182484838D4
:102A30000068204380494839086006E07E484838ED
:102A40000068A0437C494839086070BD70B50446F1
:102A50000D467E48204008B904B105E04FF4D86126
:102A6000AFF2087002F0CFF90DB1012D00D105E0F1
:102A700040F2C161AFF21C7002F0C5F93DB16E4881
:102A80007C38006820436C497C39086006E06A485D
:102A90007C380068A04368497C39086070BD70B517
:102AA00004460D4624F0F10008B904B105E040F2F7
:102AB000DD61AFF2587002F0A6F90DB1012D00D121
:102AC00005E040F2DE61AFF26C7002F09CF93DB1BE
:102AD000594878380068204357497839086006E03B
:102AE000554878380068A04353497839086070BD6C
:102AF00070B504460D4624F0010008B904B105E0A4
:102B000040F2F661AFF2AC7002F07DF90DB1012D2B
:102B100000D105E040F2F761AFF2C07002F073F946
:102B20003DB1454874380068204343497439086012
:102B300006E0414874380068A0433F497439086092
:102B400070BD70B504460D463E48204008B904B13A
:102B500005E040F22771AFF2FC7002F054F90DB1BC
:102B6000012D00D105E04FF4E561AFF6100002F051
:102B70004AF93DB130486C38006820432E496C3921
:102B8000086006E02C486C380068A0432A496C397C
:102B9000086070BD70B504460D462D48204008B948
:102BA00004B105E04FF4EA61AFF6500002F02BF9F2
:102BB0000DB1012D00D105E040F25171AFF6640076
:102BC00002F021F93DB11C486838006820431A49D9
:102BD0006839086006E0184868380068A04316495C
:102BE0006839086070BD70B504460D46194820402C
:102BF00008B904B105E040F28171AFF6A00002F01F
:102C000002F90DB1012D00D105E040F28271AFF65D
:102C1000B40002F0F8F83DB107483C3800682043A2
:102C200005493C39086006E003483C380068A04389
:102C300001493C39086070BD8C380240E0114742C0
:102C400000E80B8100360109CC8088FB00E81FDD1D
:102C5000CC8688FB0068108170B504460D4624F0D0
:102C6000F10008B904B105E040F2A171AFF614100B
:102C700002F0C9F80DB1012D00D105E040F2A271BA
:102C8000AFF6281002F0BFF82DB185480068204348
:102C90008349086004E082480068A04380490860D6
:102CA00070BD70B504460D4624F0010008B904B1AA
:102CB00005E040F2BD71AFF65C1002F0A4F80DB172
:102CC000012D00D105E040F2BE71AFF6701002F0A8
:102CD0009AF83DB17248001D006820437049091DF3
:102CE000086006E06E48001D0068A0436C49091D9D
:102CF000086070BD70B504460D466A48204008B9AA
:102D000004B105E040F2F171AFF6B01002F07BF8CB
:102D10000DB1012D00D105E040F2F271AFF6C41003
:102D200002F071F83DB15E480C30006820435C4908
:102D30000C31086006E05A480C300068A04358493E
:102D40000C31086070BD70B504460D4656482040F1
:102D500008B904B105E040F61E01AFF6002002F00C
:102D600052F80DB1012D00D105E040F61F01AFF67C
:102D7000142002F048F83DB1494810300068204363
:102D800047491031086006E0454810300068A0430C
:102D900043491031086070BD10B504460CB1012CD8
:102DA00000D105E040F63601AFF6502002F02BF8D6
:102DB000012C08D13A481C30006840F0080038491E
:102DC0001C31086007E036481C30006820F008001D
:102DD00033491C31086010BD70B504460D4604F03F
:102DE000800008B904B105E040F66401AFF6942014
:102DF00002F009F80DB1012D00D105E040F66501A2
:102E0000AFF6A82001F0FFFF3DB125484738007814
:102E1000204323494739087006E0214847380078A5
:102E2000A0431F494739087070BD1D482030006815
:102E300040F080701A4920310860704770B5044630
:102E40000025012C0DD0022C0BD0042C09D0082C0D
:102E500007D0102C05D0802C03D0402C01D0202C82
:102E600000D105E040F6CC01AFF6103001F0CBFF09
:102E70000B4848380068204008B1012500E00025D3
:102E8000284670BD10B5044604B105E040F6EC01DB
:102E9000AFF6383001F0B7FF01484638047010BD76
:102EA0005438024000360109CC8088FB10B5044636
:102EB000F948844214D0F948844211D0F848844239
:102EC0000ED0F84884420BD0F748844208D0F74827
:102ED000844205D0F648844202D0F648844200D1AC
:102EE00003E0BE21F4A001F08EFFEB48844208D13C
:102EF00001211020FFF74EFE00211020FFF74AFEAF
:102F000057E0E648844209D101214804FFF719FE41
:102F100000214FF40030FFF714FE4AE0E0488442FD
:102F200009D101218804FFF70CFE00214FF4802015
:102F3000FFF707FE3DE0DB48844209D10121C804C8
:102F4000FFF7FFFD00214FF40020FFF7FAFD30E00E
:102F5000D548844209D101210805FFF7F2FD00217F
:102F60004FF48010FFF7EDFD23E0D048844208D1F4
:102F700001212020FFF70EFE00212020FFF70AFE8E
:102F800017E0CB48844209D101218807FFF7D9FD1A
:102F900000214FF08040FFF7D4FD0AE0C54884428D
:102FA00007D101214005FFF7CCFD00216005FFF7A7
:102FB000C8FD10BD2DE9FF4705460C460026B14669
:102FC00000BFB046B448854214D0B448854211D001
:102FD000B34885420ED0B34885420BD0B2488542F3
:102FE00008D0B248854205D0B148854202D0B148E8
:102FF000854200D103E0FE21AFA001F004FF20686C
:1030000020B1B7492068884200D203E0FF21AAA07E
:1030100001F0F9FEA08818B1A088B0F5805F00D15A
:1030200004E04FF48071A4A001F0EDFEE08858B1F7
:10303000E088B0F5805F07D0E088B0F5005F03D08E
:10304000E088B0F5405F00D104E040F201119AA0A1
:1030500001F0D9FE208938B12089B0F5806F03D006
:103060002089B0F5C06F00D104E04FF4817192A0C7
:1030700001F0C9FE60894FF6F371084010B960890C
:1030800000B104E040F203118BA001F0BCFEA08966
:1030900058B1A089B0F5807F07D0A089B0F5007F36
:1030A00003D0A089B0F5407F00D104E04FF48271D5
:1030B00081A001F0A8FEA08988B17748854208D098
:1030C0007648854205D07648854202D077488542C9
:1030D00000D104E040F2091177A001F094FE2E8A9D
:1030E00026F44056E08806432E82AE8941F20C60F9
:1030F0008643A08821890843618908430643AE813D
:10310000AE8A26F44076A0890643AE826846FFF771
:10311000DBF96148854202D06448854202D1DDF87E
:103120000C9001E0DDF80890A88900F4004040B15F
:1031300009EBC90000EB091021684900B0FBF1F769
:1031400007E009EBC90000EB091021688900B0FB1A
:10315000F1F76420B7FBF0F006013009642101FBB0
:103160001078A88900F4004040B1322000EBC8007C
:10317000B0FBF1F000F00700064308E0322000EB5E
:1031800008106421B0FBF1F000F00F0006432E811F
:10319000BDE8FF874FF41651016000218180C18096
:1031A00001810C21418100218181704770B5054664
:1031B0000C4600263848854208D03848854205D05C
:1031C0003748854202D03948854200D104E040F2B8
:1031D0007F1139A001F017FE208818B12088B0F5C2
:1031E000006F00D104E04FF4C07133A001F00BFE7A
:1031F000608818B16088B0F5806F00D104E040F2BB
:1032000081112DA001F0FFFDA08818B1A088B0F5B4
:10321000007F00D104E04FF4C17127A001F0F3FD5D
:10322000E08818B1E088B0F5807F00D104E040F27A
:10323000831121A001F0E7FD2E8A26F47066208814
:1032400061880843A1880843E188084306432E8229
:1032500070BD0021018041808180C180704770B5C0
:1032600004460D460C48844214D00C48844211D0C8
:103270000B4884420ED00B4884420BD00A4884424B
:1032800008D00A48844205D00948844202D009483F
:10329000844227D12CE0000000100140004400408F
:1032A00000480040004C0040005000400014014025
:1032B00000780040007C00402E2E5C53544D333289
:1032C00046345F46574C49425C7372635C73746D5D
:1032D0003332663478785F75736172742E630000E0
:1032E000E17072004FF4D771AFF2340001F08BFD42
:1032F0000DB1012D00D105E040F2AF11AFF2480051
:1033000001F081FD25B1A08940F40050A08104E0C6
:10331000A0894DF6FF710840A08170BD70B50446CC
:103320000D46FA48844214D0F948844211D0F94835
:1033300084420ED0F84884420BD0F848844208D02A
:10334000F748844205D0F748844202D0F6488442C8
:1033500000D105E04FF4E471AFF2A40001F053FD99
:10336000208B00F47F402083208B2843208370BD76
:1033700070B504460D46E548844214D0E4488442C2
:1033800011D0E44884420ED0E34884420BD0E34895
:10339000844208D0E248844205D0E248844202D008
:1033A000E148844200D105E040F2DD11AFF2F800BF
:1033B00001F029FD0DB1012D00D105E04FF4EF71B1
:1033C000AFF20C1001F01FFD25B1A08940F40040C0
:1033D000A08103E0A089C0F30E00A08170BD70B58C
:1033E00004460D46C948844214D0C948844211D0CD
:1033F000C84884420ED0C84884420BD0C748844293
:1034000008D0C748844205D0C648844202D0C64886
:10341000844200D105E040F2F711AFF2641001F0F0
:10342000F2FC0DB1012D00D105E04FF4FC71AFF2BB
:10343000781001F0E8FC25B1A08A40F40060A08279
:1034400004E0A08A4FF2FF710840A08270BD70B501
:1034500004460D46AD48844214D0AD48844211D094
:10346000AC4884420ED0AC4884420BD0AB48844276
:1034700008D0AB48844205D0AA48844202D0AA486A
:10348000844200D105E04FF40C71AFF2D41001F08A
:10349000BAFCB5F5007F00DA05E040F23121AFF269
:1034A000E81001F0B0FCC5F30800A08070BD10B5B5
:1034B00004469648844214D09548844211D09548D9
:1034C00084420ED0944884420BD09448844208D061
:1034D0009348844205D09348844202D09248844263
:1034E00000D105E04FF41071AFF2342001F08BFCF5
:1034F000A088C0F3080010BD70B504460D4683488F
:10350000844214D08248844211D0824884420ED032
:10351000814884420BD08148844208D0804884424C
:1035200005D08048844202D07F48844200D105E023
:103530004FF41D71AFF2802001F065FC0F2D00DC0F
:1035400005E040F27521AFF2902001F05CFC208A8A
:103550004FF6F07108402082208A2843208270BDF7
:1035600070B504460D466948844214D068488442C8
:1035700011D0684884420ED0674884420BD0674817
:10358000844208D06648844205D06648844202D00E
:103590006548844200D105E04FF42271AFF2E82083
:1035A00001F031FC0DB1012D00D105E040F289217F
:1035B000AFF2FC2001F027FC25B1A08940F0020009
:1035C000A08104E0A0894FF6FD710840A08170BD84
:1035D00070B504460D464D48844214D04C48844290
:1035E00011D04C4884420ED04B4884420BD04B48FB
:1035F000844208D04A48844205D04A48844202D0D6
:103600004948844200D105E040F2A321AFF258308E
:1036100001F0F9FB15B1B5F5006F00D105E04FF4ED
:103620002971AFF26C3001F0EEFBA0894FF2FF710F
:103630000840A081A0892843A08170BD70B50446D0
:103640000D463248844214D03148844211D031486A
:1036500084420ED0304884420BD03048844208D097
:103660002F48844205D02F48844202D02E488442FD
:1036700000D105E04FF43A71AFF2C43001F0C3FB62
:103680000DB1202D00D105E040F2E921AFF2D83094
:1036900001F0B9FB208A4FF6DF7108402082208AB2
:1036A0002843208270BD70B504460D4617488442F9
:1036B00014D01748844211D0164884420ED01648C0
:1036C00084420BD01548844208D01548844205D066
:1036D0001448844202D01448844200D105E040F2EC
:1036E000FA21AFF22C4001F08EFB0DB1012D00D17B
:1036F00005E040F2FB21AFF2404001F084FBADB1A8
:10370000208A40F48040208215E000000010014033
:103710000044004000480040004C00400050004081
:103720000014014000780040007C0040208A4BF6E5
:10373000FF710840208270BD10B50446FD488442E8
:1037400014D0FD48844211D0FC4884420ED0FC487D
:1037500084420BD0FB48844208D0FB48844205D009
:10376000FA48844202D0FA48844200D105E040F28F
:103770001231AFF2BC4001F046FBA08940F00100DD
:10378000A08110BD70B504460D46EA48844214D0AD
:10379000E948844211D0E94884420ED0E848844286
:1037A0000BD0E848844208D0E748844205D0E74877
:1037B000844202D0E648844200D105E040F247311D
:1037C000AFF20C5001F01FFB0DB1012D00D105E04F
:1037D0004FF45271AFF2205001F015FB25B1A08AD1
:1037E00040F00800A08204E0A08A4FF6F77108407C
:1037F000A08270BD70B504460D46CE48844208D004
:10380000CD48844205D0CD48844202D0CE4884427F
:1038100000D105E040F29B31AFF2645001F0F3FAC1
:10382000208BC0B22083208B40EA0520208370BD0E
:1038300070B504460D46BF48844208D0BE48844255
:1038400005D0BE48844202D0BF48844200D105E082
:1038500040F2AE31AFF2A05001F0D5FA0DB1012D1A
:1038600000D105E040F2AF31AFF2B45001F0CBFA35
:1038700025B1A08A40F02000A08204E0A08A4FF683
:10388000DF710840A08270BD70B504460D46A9489E
:10389000844208D0A848844205D0A848844202D077
:1038A000A948844200D105E040F2C731AFF2F85098
:1038B00001F0A9FA0DB1012D00D105E04FF47271AC
:1038C000AFF20C6001F09FFA25B1A08A40F0100021
:1038D000A08204E0A08A4FF6EF710840A08270BD7C
:1038E00070B504460D469348844214D092488442F1
:1038F00011D0924884420ED0914884420BD0914816
:10390000844208D09048844205D09048844202D036
:103910008F48844200D105E040F20E41AFF268606A
:1039200001F071FA042D00D005B905E040F20F4115
:10393000AFF27C6001F067FAA08A4FF6FB71084095
:10394000A082A08A2843A08270BD70B504460D46AF
:103950007848844214D07848844211D07748844211
:103960000ED0774884420BD07648844208D07648FF
:10397000844205D07548844202D07548844200D103
:1039800005E04FF48461AFF2D06001F03CFA0DB174
:10399000012D00D105E040F22141AFF2E46001F0D9
:1039A00032FA25B1A08A40F00200A08204E0A08A89
:1039B0004FF6FD710840A08270BD70B504460D46FB
:1039C00016465C48844214D05B48844211D05B4860
:1039D00084420ED05A4884420BD05A48844208D0C0
:1039E0005948844205D05948844202D058488442FC
:1039F00000D105E040F24E41AFF2447001F003FA0D
:103A00004FF63F70284008B905B105E040F24F413C
:103A1000AFF25C7001F0F7F90EB1012E00D105E0B4
:103A20004FF48A61AFF2707001F0EDF91EB1A08A17
:103A30002843A08202E0A08AA843A08270BD2DE99D
:103A4000F04704460D4617464FF00008C246C146EF
:103A500000263848844214D03748844211D0374871
:103A600084420ED0364884420BD03648844208D077
:103A70003548844205D03548844202D034488442D7
:103A800000D105E040F2D441AFF2D47001F0BBF9AF
:103A9000282D19D040F22770854215D040F22660BB
:103AA000854211D040F2255085420DD040F224408D
:103AB000854209D040F64600854205D040F66A109E
:103AC000854201D0602D00D105E040F2D541AFF62E
:103AD000180001F098F90FB1012F00D105E040F274
:103AE000D641AFF62C0001F08EF940F66A108542FF
:103AF00012D11048844208D00F48844205D00F48A4
:103B0000844202D01048844200D105E040F2DB41FB
:103B1000AFF65C0001F077F92646C5F3421805F0D0
:103B20001F0A012000FA0AF9B8F1010F12D10C3670
:103B300016E0000000100140004400400048004032
:103B4000004C00400050004000140140007800404C
:103B5000007C0040B8F1020F01D1103600E01436AD
:103B600027B1306840EA0900306003E0306820EA9D
:103B700009003060BDE8F08770B504460D460026A8
:103B8000C848844214D0C848844211D0C7488442EF
:103B90000ED0C74884420BD0C648844208D0C648DD
:103BA000844205D0C548844202D0C548844200D131
:103BB00005E040F21351AFF6001001F024F9012D99
:103BC00013D0802D11D0402D0FD0202D0DD0102DD1
:103BD0000BD0B5F5807F08D0B5F5007F05D0082D56
:103BE00003D0042D01D0022D00D105E040F2145184
:103BF000AFF63C1001F007F9B5F5007F12D1A948E6
:103C0000844208D0A848844205D0A848844202D003
:103C1000A948844200D105E040F21951AFF668107E
:103C200001F0F1F82088284008B1012600E00026C4
:103C3000304670BD70B504460D469A48844214D093
:103C40009948844211D0994884420ED098488442C1
:103C50000BD09848844208D09748844205D09748B2
:103C6000844202D09648844200D105E040F243519C
:103C7000AFF6BC1001F0C7F84FF69F40284008B9D6
:103C800005B105E040F24451AFF6D41001F0BBF8A5
:103C900005F40070B0F5007F12D18248844208D04C
:103CA0008148844205D08148844202D082488442BF
:103CB00000D105E040F24951AFF6042001F0A3F82D
:103CC000E843208070BD2DE9F04704460D460027EB
:103CD0000026B046B1467348844214D072488442EC
:103CE00011D0724884420ED0714884420BD0714882
:103CF000844208D07048844205D07048844202D083
:103D00006F48844200D105E040F26751AFF6582079
:103D100001F079F8282D27D040F22770854223D072
:103D200040F2266085421FD040F2255085421BD0CC
:103D300040F22440854217D040F64600854213D019
:103D400040F66A1085420FD0B5F5587F0CD040F28E
:103D50002530854208D0B5F5587F05D0B5F5187FD8
:103D600002D0B5F5B07F00D105E04FF4AD61AFF6FC
:103D7000B82001F048F840F66A10854212D149484F
:103D8000844208D04848844205D04848844202D042
:103D90004948844200D105E040F26D51AFF6E82079
:103DA00001F031F8C5F3421805F01F06012000FAB2
:103DB00006F6B8F1010F02D1A089064007E0B8F17C
:103DC000020F02D1208A064001E0A08A06402F128D
:103DD000012000FA07F7208807401EB117B14FF005
:103DE000010901E04FF000094846BDE8F0872DE9E0
:103DF000F04104460D46002600272A48844214D08C
:103E00002948844211D0294884420ED0284884424F
:103E10000BD02848844208D02748844205D0274840
:103E2000844202D02648844200D105E04FF4B661B6
:103E3000AFF67C3000F0E7FF40F2266085420BD001
:103E400040F22550854207D040F64600854203D017
:103E500040F66A10854200D105E040F2B151AFF65C
:103E6000A83000F0D0FF40F66A10854212D10D480C
:103E7000844208D00C48844205D00C48844202D0C9
:103E80000D48844200D105E040F2B651AFF6D8307B
:103E900000F0B9FF2E120120B04087B2F843208015
:103EA000BDE8F0810010014000440040004800409F
:103EB000004C0040005000400014014000780040D9
:103EC000007C004010B50446F94884420ED0F94801
:103ED00084420BD0F848844208D0F848844205D088
:103EE000F748844202D0F748844200D103E0E3213E
:103EF000F5A000F088FFEE48844208D1012180142B
:103F0000FEF748FE0021A014FEF744FE3CE0E9481D
:103F1000844208D101210014FEF713FE0021201471
:103F2000FEF70FFE30E0E448844208D10121C013BF
:103F3000FEF707FE0021E013FEF703FE24E0DF4852
:103F4000844208D101214014FEF724FE00216014B0
:103F5000FEF720FE18E0DA48844209D10121080565
:103F6000FEF718FE00214FF48010FEF713FE0BE061
:103F7000D448844208D101214805FEF70BFE0021F8
:103F80004FF40010FEF706FE10BD70B505460C4656
:103F90000026C74885420ED0C64885420BD0C64889
:103FA000854208D0C548854205D0C548854202D023
:103FB000C448854200D104E040F22111C2A000F0C3
:103FC00022FF208858B12088B0F5806F07D0208864
:103FD000B0F5004F03D02088B0F5404F00D104E089
:103FE0004FF49271B8A000F00EFF6088B0F5827FA8
:103FF00001D0608800B904E040F22511B2A000F0C1
:1040000002FFA088B0F5006F01D0A08800B904E0DD
:104010004FF49371ACA000F0F6FEE08810B1E08898
:10402000022800D104E040F22711A7A000F0EBFE27
:10403000208910B12089012800D104E04FF4947147
:10404000A1A000F0E0FE6089B0F5007F01D060899A
:1040500000B904E040F229119BA000F0D4FEA08931
:10406000A0B1A089082811D0A08910280ED0A0895D
:1040700018280BD0A089202808D0A089282805D08E
:10408000A089302802D0A089382800D104E04FF45C
:1040900095718DA000F0B7FEE08910B1E08980280D
:1040A00000D104E040F22B1187A000F0ACFE208A82
:1040B000012800DB04E04FF4967183A000F0A3FE1A
:1040C0002E8806F44156208861880843A188084359
:1040D000E18808432189084361890843A18908438D
:1040E000E189084306432E80A88B4FF2FF710840F8
:1040F000A883208A288270BD2DE9FE4F05460C4614
:104100004FF0000902274FF000080120029000261E
:104110004FF0000A4FF0000B00200190009065481E
:10412000854202D06448854200D104E040F2651126
:1041300065A000F068FE208858B12088B0F5807F27
:1041400007D02088B0F5007F03D02088B0F5407FED
:1041500000D104E04FF4B3715BA000F054FE60881E
:1041600058B16088102808D06088202805D0608861
:10417000302802D06088B02800D104E040F26711F6
:1041800051A000F040FEA08840B1A088012805D0D1
:10419000A088032802D0A088052800D104E04FF4AD
:1041A000B47149A000F02FFEE088B0F5007F01D087
:1041B000E08800B904E040F2691143A000F023FE5A
:1041C000A068B0F5FA5F03D34949A068884202D9D4
:1041D000A068022800D104E04FF4B5713AA000F0C5
:1041E00012FEA08910B1A089082800D104E040F295
:1041F0006B1135A000F007FEA88B4FF2400108407C
:10420000A88302202884B5F81C90A068022803D156
:104210004FF0000802278CE0A08810B9012002901E
:1042200001E0022002903348006800F4000028B149
:104230003048006820F400002E4908602D487C308A
:104240000068C0F3881001902A487C300068C0F3F1
:10425000027000902748001F006800F03F0B2548BF
:10426000001F006800F48000B0F5800F08D12248DC
:10427000B0FBFBF0019948430099B0FBF1FA07E06D
:104280001E48B0FBFBF0019948430099B0FBF1FADE
:10429000E088B0F5007F33D14FEA1A2000EB8000B0
:1042A0004000A168B0FBF1F0401D86B234E0000090
:1042B0000030014000380040003C00400034014024
:1042C00000500140005401402E2E5C53544D3332B7
:1042D00046345F46574C49425C7372635C73746D3D
:1042E0003332663478785F7370692E6300000000A3
:1042F00000EE02000838024000127A000024F400A8
:1043000002984001BAFBF0F000EB80004000A16889
:10431000B0FBF1F0401D86B20A20B6FBF0F606F0C5
:104320000108A6EB0800C0F34F074FF6FF7000EA44
:104330000828022F01DBFF2F02DD02274FF00008C3
:10434000E08840EA080038432884A088A18908430F
:10435000618808432188084340F4006040EA090965
:10436000A5F81C90BDE8FE8F00210180418081806E
:10437000C180018141818181C18107210182704712
:104380000021018041808180C18002218160002163
:104390008181704770B504460D46FE4884420ED0B8
:1043A000FD4884420BD0FD48844208D0FC4884423A
:1043B00005D0FC48844202D0FB48844200D105E08D
:1043C00040F22321AFF2001000F01DFD0DB1012DD0
:1043D00000D105E04FF40971AFF2141000F013FDA5
:1043E00025B1208840F04000208004E020884FF66E
:1043F000BF710840208070BD70B504460D46E64888
:10440000844208D0E548844205D0E848844202D07E
:10441000B4F1402F00D105E04FF40F71AFF2581006
:1044200000F0F1FC0DB1012D00D105E040F23D217D
:10443000AFF26C1000F0E7FC25B1A08B40F4806077
:10444000A08304E0A08B4FF6FF310840A08370BD2D
:1044500070B504460D46CF4884420ED0CE48844203
:104460000BD0CE48844208D0CD48844205D0CD48F8
:10447000844202D0CC48844200D105E040F257216A
:10448000AFF2BC1000F0BFFCB5F5006F00D005B96D
:1044900005E04FF41671AFF2D01000F0B4FC2088A4
:1044A0004FF2FF710840208020882843208070BD93
:1044B00070B504460D46B74884420ED0B6488442D3
:1044C0000BD0B648844208D0B548844205D0B548E0
:1044D000844202D0B448844200D105E040F26B210E
:1044E000AFF21C2000F08FFC4BF6FF70854202D02B
:1044F000B5F5804F00D105E04FF41B71AFF23820C5
:1045000000F081FCB5F5804F04D1208840F4804054
:10451000208004E020884BF6FF710840208070BDA9
:1045200070B504460D469B4884420ED09A4884429A
:104530000BD09A48844208D09948844205D09948C3
:10454000844202D09848844200D105E040F285219F
:10455000AFF28C2000F057FCB5F5807F03D04FF60A
:10456000FF60854200D105E040F28621AFF2A8202D
:1045700000F049FC4FF6FF60854204D0208840F4EB
:104580008070208004E020884FF6FF610840208082
:1045900070BD70B504460D467E4884420ED07E48FC
:1045A00084420BD07D48844208D07D48844205D0A7
:1045B0007C48844202D07C48844200D105E040F22D
:1045C0009D21AFF2FC2000F01EFC0DB1012D00D1A9
:1045D00005E040F29E21AFF2103000F014FC25B14E
:1045E000A08840F00400A08004E0A0884FF6FB7192
:1045F0000840A08070BD70B504460D4665488442F1
:104600000ED0654884420BD06448844208D0644888
:10461000844205D06348844202D06348844200D17A
:1046200005E04FF42F71AFF2603000F0ECFB0DB1FC
:10463000012D00D105E040F2BD21AFF2743000F051
:10464000E2FB25B1A08840F01000A08004E0A08823
:104650004FF6EF710840A08070BD2DE9F04105468E
:104660000C46002600275148854202D0B5F1402F64
:1046700000D105E040F2E321AFF2B43000F0C3FB1B
:10468000208858B12088B0F5807F07D02088B0F509
:10469000007F03D02088B0F5407F00D105E04FF4C3
:1046A0003971AFF2DC3000F0AEFB608858B1608841
:1046B000102808D06088202805D06088302802D0D3
:1046C0006088B02800D105E040F2E521AFF2084053
:1046D00000F099FBA08840B1A088012805D0A088EF
:1046E000032802D0A088052800D105E040F2E62189
:1046F000AFF22C4000F087FBA08910B1A0890828F8
:1047000000D105E040F2E721AFF2444000F07BFB2E
:10471000A88B4FF240010840A88302202884AE8B6A
:104720002088B0F5007F01D0208810B94FF4807741
:1047300008E02088B0F5407F03D02088B0F5807F66
:1047400000D10027A088A189084361880843384325
:1047500040F400600643AE83BDE8F08110B5044626
:104760000C48844214D00C48844211D00B48844237
:104770000ED00B4884420BD00A48844208D00A4825
:10478000844205D00948844202D0B4F1402F0FD1B1
:1047900014E000000030014000380040003C0040C0
:1047A00000340140005001400054014000340040FA
:1047B00040F22B31AFF2F04000F025FBA08910BD94
:1047C00070B504460D46FB48844214D0FA48844232
:1047D00011D0FA4884420ED0F94884420BD0F948EF
:1047E000844208D0F848844205D0F848844202D078
:1047F000B4F1402F00D105E040F23B31AFF2385028
:1048000000F001FBA58170BD70B504460D46E94876
:1048100084420ED0E84884420BD0E848844208D055
:10482000E748844205D0E748844202D0E648844203
:1048300000D105E040F29531AFF2745000F0E3FA98
:104840000DB1012D00D105E040F29631AFF2885054
:1048500000F0D9FA25B1208840F40050208004E00F
:1048600020884DF6FF710840208070BD10B50446C9
:10487000D04884420ED0D04884420BD0CF488442E6
:1048800008D0CF48844205D0CE48844202D0CE48DA
:10489000844200D105E040F2AB31AFF2D45000F0D9
:1048A000B2FA208840F48050208010BD70B50446D4
:1048B0000D460026BF4884420ED0BF4884420BD02C
:1048C000BE48844208D0BE48844205D0BD488442D8
:1048D00002D0BD48844200D105E040F2BE31AFF2C3
:1048E000186000F090FA0DB1012D00D105E040F202
:1048F000BF31AFF22C6000F086FA012D01D0268B7B
:1049000000E0A68A304670BD10B50446A94884422E
:104910000ED0A94884420BD0A848844208D0A848A9
:10492000844205D0A748844202D0A748844200D1DF
:1049300005E040F2D631AFF2706000F064FA208AF0
:1049400010BD70B504460D4616469A48844214D0F0
:104950009948844211D0994884420ED098488442A4
:104960000BD09848844208D09748844205D0974895
:10497000844202D0B4F1402F00D105E040F2FB3177
:10498000AFF2BC6000F03FFA0EB1012E00D105E09D
:104990004FF47F71AFF2D06000F035FA4FF6FC7043
:1049A000284008B905B105E040F2FD31AFF2E860FA
:1049B00000F029FA1EB1A0882843A08002E0A08858
:1049C000A843A08070BD2DE9F04104460D4616466F
:1049D0004FF0000800277748844214D0764884427C
:1049E00011D0764884420ED0754884420BD0754869
:1049F000844208D07448844205D07448844202D06E
:104A0000B4F1402F00D105E040F26941AFF24870A7
:104A100000F0F9F90EB1012E00D105E040F26A4133
:104A2000AFF25C7000F0EFF9712D03D0602D01D072
:104A3000502D00D105E040F26B41AFF2747000F0F0
:104A4000E2F94FEA2518012000FA08F087B21EB1FA
:104A5000A0883843A08002E0A088B843A080BDE8C9
:104A6000F08170B505460C4600265248854214D0A8
:104A70005148854211D0514885420ED05048854258
:104A80000BD05048854208D04F48854205D04F484A
:104A9000854202D0B5F1402F00D105E040F29441AB
:104AA000AFF2DC7000F0AFF9802C10D0402C0ED0AB
:104AB000202C0CD0102C0AD0082C08D0042C06D0A6
:104AC000022C04D0012C02D0B4F5807F00D105E087
:104AD00040F29541AFF6100000F095F9288920408A
:104AE00008B1012600E00026304670BD70B50446CE
:104AF0000D463048844214D02F48844211D02F48AC
:104B000084420ED02E4884420BD02E48844208D0D6
:104B10002D48844205D02D48844202D0B4F1402F64
:104B200000D105E040F2BC41AFF6640000F06BF943
:104B3000102D00D105E040F2BD41AFF6740000F049
:104B400062F9E843208170BD2DE9F04704460D4627
:104B50000027B8460026B1461648844214D01648AD
:104B6000844211D0154884420ED0154884420BD09F
:104B70001448844208D01448844205D01348844223
:104B800002D0B4F1402F00D105E04FF49B61AFF6A5
:104B9000C80000F038F9602D0BD0712D09D0542DCC
:104BA00007D0552D05D0562D03D0532D01D0582DAB
:104BB0000ED113E00030014000380040003C0040BE
:104BC00000340140005001400054014000340040D6
:104BD00040F2D941AFF6101000F015F905F00F01C1
:104BE000012088401FFA80F82E110120B04086B2C3
:104BF000A08800EA0609208900EA080020B1B9F17E
:104C0000000F01D0012700E000273846BDE8F087FB
:104C100070B504460D4600261748844214D0174844
:104C2000844211D0164884420ED0164884420BD0DC
:104C30001548844208D01548844205D0144884425F
:104C400002D0B4F1402F00D105E040F20D51AFF693
:104C5000881000F0D8F8542D00D105E040F20E5134
:104C6000AFF69C1000F0CFF805F00F01012088404E
:104C700086B2F043208170BD003001400038004012
:104C8000003C00400034014000500140005401400D
:104C90000034004098B0032409F088FC00F0ECF8E0
:104CA00005465A480068B5FBF0F6304607F0FBFFB2
:104CB00008F0D2F908F0A4F900F03EF900F0E8F9A4
:104CC00000F01CF909F0C0FD17A801F009F817AAB7
:104CD0004FA1504803F0ADF917AA00214D4803F049
:104CE000CDFD032C4BD117A8072100220592CDE959
:104CF0000621089010464FF400713322464BCDE94F
:104D00000132CDE903100F200023444A44A1009052
:104D1000464805F0E0F817A8072100220592CDE9E2
:104D2000062108900A204FF400713322404BCDE950
:104D30000132CDE90310102000233E4A3EA100902D
:104D4000414805F0C8F817A8072100220592CDE9CF
:104D5000062108900A204FF4007133223B4BCDE925
:104D60000132CDE9031014200023394A39A1009003
:104D70003A4805F0B0F83448394908603AE0394F0C
:104D8000DFF8E48000201490159016901390129094
:104D9000119017A800231A46194600901D4803F0E9
:104DA0006FFB09F094FD012230A140460AF0D2FECB
:104DB000814602A809F09AFDB4B901222CA1384617
:104DC0000AF0F6FE814613AB0C2214A938460BF00C
:104DD00006F8814612AA042114A8FCF79BF811AA30
:104DE000082115A8FCF796F817AA0021094803F036
:104DF00045FD00BF17A9002005F0C2F917A800F073
:104E0000B9FF00BFFEE700BFFEE70000DC1B0108A2
:104E1000465300000400012030A300202B030008AB
:104E2000455350383236365461736B0078A20020F7
:104E30007CB40020590400084553503832363653AC
:104E4000656E645461736B00C4B3002034BD0020F0
:104E5000C90500084941505461736B007CBC0020B7
:104E600004000020D4EF0020A4DF0020303A00002E
:104E70005C50302E62696E001FB56846FDF724FB5A
:104E8000019804B010BD10B5FFF7F6FF04461848AE
:104E9000006840F08070164908600020154948609D
:104EA0000846006840F001000860204609F0EFFB6A
:104EB00010BD1049486870472DE9F0478246FFF75A
:104EC000DBFF4FF0000980460B4A0023404649466D
:104ED0000CF082FB064632460B46504600210CF091
:104EE0007BFB04460D4620462946BDE8F0870000BE
:104EF000FCED00E0001000E040420F001CB5012175
:104F00004020FDF7D6FC8020009001208DF80400A1
:104F100000208DF8060003208DF8050002208DF892
:104F2000070069460348FCF7C7FB80210148FCF7EE
:104F30003EFE1CBD001802401CB501212020FDF7DB
:104F4000B8FC4FF47070009000208DF8040003202E
:104F50008DF8050001208DF8070069464548FCF7EB
:104F6000ABFB1CBD0021444A1170092181F30401EF
:104F7000424A02EB8101D1F80012C1B1082181F34C
:104F8000040102EB8101D1F8001281B1072181F304
:104F9000040102EB8101D1F8001241B1062181F335
:104FA000040102EB8101D1F80012002951D109213D
:104FB00081F30401314A02EB8101D1F8001219B9E1
:104FC00001212F4A117025E0082181F304012B4AA9
:104FD00002EB8101D1F8001219B90221284A11709F
:104FE00018E0072181F30401244A02EB8101D1F882
:104FF000001219B90321224A11700BE0062181F336
:1050000004011E4A02EB8101D1F8001211B90421FA
:105010001B4A11701A4909781A4A1278914210D124
:1050200019490988491C184A118015490978174AF5
:105030001170E8B914490988012919DD002111709E
:1050400016E00021104A11800D4909780D4A1170AF
:105050000EE00D490988022903DD09490978064A4D
:1050600011700021074A1170074A1180074A117018
:105070007047000000140240B5000020008042424A
:10508000B8000020B9000020B6000020B4000020C5
:105090001CB501215020FDF70CFC182000900120C8
:1050A0008DF8040000208DF8060003208DF805001F
:1050B00001208DF8070069460948FCF7FDFA182120
:1050C0000748FCF73EFD4FF4007000906946054824
:1050D000FCF7F2FA4FF400710248FCF732FD1CBDF8
:1050E000001002400018024000B587B001210846B8
:1050F000FDF7DFFB0121C804FDF756FC4248FDF730
:10510000D5FE082200214148FCF74DFE082201216E
:105110003E48FCF748FE0320059002208DF8180059
:1051200003208DF8190000208DF81A0001208DF859
:105130001B0005A93548FCF7BFFA4FF4E130019098
:105140000020ADF80800ADF80A00ADF80C00ADF88D
:1051500010000C20ADF80E0001A92B48FDF72AFF26
:1051600001212948FEF77BF840212748FEF762FD20
:10517000012240F225512448FEF761FC34208DF8CD
:10518000000003208DF8010000208DF802000120AE
:105190008DF803006846FCF712F907B000BD1CB596
:1051A00001210420FDF785FB0220009001208DF8ED
:1051B000040000208DF8060003208DF80500012072
:1051C0008DF8070069461248FCF776FA022110486C
:1051D000FCF7B7FC1CBD00BF0B49098801F040017A
:1051E0000029F9D00849091D0880704710B5034609
:1051F0000C46002200BF985CFFF7EDFF501C82B206
:10520000A242F8DB10BD0000004C0040000002404C
:105210000008024000BF704700BF244A128802F015
:105220004002002AF9D0C2B2204B9A80704710B5D4
:1052300086B0044601210846FDF73BFB0121102002
:10524000FDF7DBFB072209211948FCF7ACFD07221B
:105250000A211748FCF7A7FD4FF4C0600490022014
:105260008DF814008DF8150000208DF8160001202F
:105270008DF8170004A90E48FCF71EFA00940020D0
:10528000ADF80400ADF80600ADF80800ADF80C006C
:105290000C20ADF80A0069460448FDF78BFE012199
:1052A0000248FDF7DCFF06B010BD00000010014011
:1052B0000000024000B587B001210220FDF7F9FA95
:1052C00001210803FDF799FB3820059002208DF895
:1052D000180000208DF81A0003208DF81900012015
:1052E0008DF81B0005A96B48FCF7E6F905220321A0
:1052F0006848FCF758FD052204216648FCF753FD79
:10530000052211466348FCF74EFD0020ADF8000071
:105310004FF48270ADF802000020ADF804000220C6
:10532000ADF806000120ADF808004002ADF80A0013
:105330000020ADF80C00ADF80E000720ADF810000D
:1053400069465548FEF721FE01215348FFF722F830
:1053500007B000BD10B5044600BF02214E48FFF75C
:1053600080FB0028F9D021464B48FFF729FA00BFFF
:1053700001214948FFF775FB0028F9D04648FFF79F
:10538000EDF9C0B210BD00B587B001210220FDF7D4
:1053900090FA01218803FDF707FB4FF420400590A8
:1053A00002208DF8180000208DF81A0003208DF8D7
:1053B000190001208DF81B0005A93648FCF77CF97F
:1053C0004FF48040059002208DF8180000208DF8E1
:1053D0001A0003208DF8190000208DF81B0005A984
:1053E0002C48FCF769F905220D212A48FCF7DBFC63
:1053F00005220E212748FCF7D6FC05220F2125485F
:10540000FCF7D1FC01218803FDF79BFB00214FF441
:105410008040FDF796FB0020ADF800004FF482704D
:10542000ADF802000020ADF804000220ADF806003F
:105430000120ADF808004002ADF80A000020ADF8E8
:105440000C00ADF80E000720ADF8100069461348B7
:10545000FEF79BFD01211148FEF79CFF07B000BD40
:1054600010B5044600BF02210C48FFF7FAFA0028E5
:10547000F9D021460948FFF7A3F900BF01210748E9
:10548000FFF7EFFA0028F9D00448FFF767F9C0B238
:1054900010BD000000040240003001400038004010
:1054A00010B500240020082181F30401FE4A02EB1C
:1054B0008101C1F880029020FFF74CFF0020FFF728
:1054C00049FF0020FFF746FF0020FFF743FF0020C1
:1054D000FFF740FF44EA00240020FFF73BFF0443AE
:1054E0000120082181F30401EF4A02EB8101C1F898
:1054F0008002204610BD1CB501214020FDF7D9F9DE
:105500004FF48070009001208DF8040000208DF889
:10551000060003208DF8050001208DF8070069467C
:10552000E248FCF7C9F80120082181F30401DE4AB2
:1055300002EB8101C1F88002FFF7BCFEFF20FFF7FC
:1055400009FFFFF7ADFF4EF61771884201D1002029
:105550001CBDFFF7A5FF4EF61771884201D1002050
:10556000F6E7FFF79DFF4EF61771884201D1002044
:10557000EEE70120ECE710B500240020082181F3BC
:105580000401C94A02EB8101C1F880020520FFF73E
:10559000E1FE0020FFF7DEFE04460120082181F332
:1055A0000401C14A02EB8101C1F88002204610BD0E
:1055B00010B504460020082181F30401BA4A02EB29
:1055C0008101C1F880020120FFF7C4FE2046FFF7E9
:1055D000C1FE0120082181F30401B34A02EB8101DD
:1055E000C1F8800210BD10B50020082181F304012C
:1055F000AD4A02EB8101C1F880020620FFF7AAFE46
:105600000120082181F30401A74A02EB8101C1F8BE
:10561000800210BD10B50020082181F30401A24AC8
:1056200002EB8101C1F880020420FFF793FE012004
:10563000082181F304019C4A02EB8101C1F8800238
:1056400010BD2DE9F04106460C4617460020082102
:1056500081F30401944A02EB8101C1F88002032026
:10566000FFF778FEC4F30740FFF774FEC4F307208A
:10567000FFF770FEE0B2FFF76DFE002505E00020A9
:10568000FFF768FE7055681C85B2BD42F7DB01204C
:10569000082181F30401844A02EB8101C1F88002F0
:1056A000BDE8F08110B500BFFFF765FF00F0010015
:1056B0000028F9D110BD2DE9F04106460C461746E9
:1056C000FFF791FF0020082181F30401764A02EBE5
:1056D0008101C1F880020220FFF73CFEC4F30740BD
:1056E000FFF738FEC4F30720FFF734FEE0B2FFF700
:1056F00031FE002504E0705DFFF72CFE681C85B2CA
:10570000BD42F8DB0120082181F30401664A02EB67
:105710008101C1F88002FFF7C5FFBDE8F0812DE9E6
:10572000F04107460E461446F0B2C0F58075AC4213
:1057300000DC254612E02A4631463846FFF7BBFF1B
:10574000AC4200D10BE02F442E44601B84B2B4F570
:10575000807F02DD4FF4807500E02546EBE700BF57
:10576000BDE8F08110B504462403FFF73CFFFFF7C6
:1057700099FF0020082181F304014B4A02EB8101CB
:10578000C1F880022020FFF7E5FDC4F30740FFF7D2
:10579000E1FDC4F30720FFF7DDFDE0B2FFF7DAFD1E
:1057A0000120082181F304013F4A02EB8101C1F885
:1057B0008002FFF777FF10BD2DE9F047ADF5805D62
:1057C00081460F4616464FEA1738C7F30B0ACAF54B
:1057D0008054A64200DC344644E04FEA08314FF4DE
:1057E00080526846FFF72DFF002508E00AEB050010
:1057F0001DF80000FF2800D003E0681C85B2A54218
:10580000F4DB00BFA54216DA4046FFF7ABFF0025E8
:1058100007E019F8050005EB0A010DF80100681C06
:1058200085B2A542F5DB4FEA08314FF48052684655
:10583000FFF775FF04E0224639464846FFF76FFF41
:10584000A64200D10FE008F101084FF0000AA14480
:105850002744301B86B2B6F5805F02DD4FF48054DA
:1058600000E03446B9E700BF0DF5805DBDE8F08784
:1058700010B5FFF7B8FEFFF715FF0020082181F3F0
:105880000401094A02EB8101C1F88002C720FFF739
:1058900061FD0120082181F30401034A02EB81012B
:1058A000C1F8800204E000000000434200180240FA
:1058B000FFF7F8FE10BD10B50020082181F30401A8
:1058C0003B4A02EB8101C1F88002B920FFF742FD9B
:1058D0000120082181F30401354A02EB8101C1F85E
:1058E000800210BD10B50020082181F30401304A68
:1058F00002EB8101C1F88002AB20FFF72BFD0120F4
:10590000082181F304012A4A02EB8101C1F88002D7
:1059100010BD10B50346012031B1012906D002297E
:1059200009D0032910D10BE000200FE04FF4805480
:10593000146000200AE04FF480541480002005E039
:1059400001241460002001E0042000BF00BF10BD4E
:1059500010B50446FFF7CFFD10BD10B50446FFF7A4
:10596000A1FE002010BD2DE9F04180460D461646EF
:105970001C4600274FF6FF7000EA04323103284628
:10598000FFF75FFE3846BDE8F0812DE9F041804623
:105990000D4616461C4600274FF6FF7000EA0432FB
:1059A00031032846FFF708FF3846BDE8F0810000C4
:1059B0000000434270470000002414E000BF00BF15
:1059C00008F02CFF044600BF00BFF8480068401CE8
:1059D000F649086000BF00BF204608F023FF00BF63
:1059E00000BF06F07DFFE9E710B58AB0044600204D
:1059F000EE4908600B2000210591CDE907040691CE
:105A00000846EB490968EB4A1268EB4B1B68CDE985
:105A10000132CDE903101F200023AFF26302E7A19A
:105A20000090EB4804F057FA0AB010BD00210AE0DC
:105A300001EB4102E74B03EB82000022028102608E
:105A400042604A1CD1B22029F2D3704770B5044697
:105A500006F04EFF0020E0490870E0490870E04978
:105A60000870E0490860E0490860E0490870E049D2
:105A70000870E0490870E0490860E0490860E049C2
:105A80000860E0490870E04800680A21B0FBF1F0C6
:105A9000DE490860DE48006858B1DE48056845B157
:105AA000DB48066803E0761E002028602D1D002ECE
:105AB000F9D10020D8490860D8490860D849086061
:105AC000D8490860D8490860D8490860D8490860B2
:105AD000D849087003F004F8FFF7A8FF204601F04A
