:020000040800F2
:10000000705001209D0100089D170008B90D0008DF
:10001000E9160008970400087D7100080000000040
:100020000000000000000000000000003164000833
:100030004105000800000000DB030008B932000899
:10004000B7010008B7010008B7010008B7010008B0
:10005000B7010008B7010008B7010008B7010008A0
:10006000B7010008B7010008B7010008B701000890
:10007000B7010008B7010008B7010008B701000880
:10008000B7010008B7010008B7010008B701000870
:10009000B7010008B7010008B7010008B701000860
:1000A000B7010008B7010008B7010008B701000850
:1000B000B7010008B7010008B7010008B701000840
:1000C000B7010008B7010008B7010008B701000830
:1000D000B7010008B7010008B7010008B701000820
:1000E000B7010008B7010008B7010008B701000810
:1000F000B7010008B7010008B7010008B701000800
:10010000B7010008B7010008B7010008B7010008EF
:100110006D680008B7010008B7010008B7010008C2
:10012000B7010008B7010008B7010008B7010008CF
:10013000B7010008B7010008B7010008B7010008BF
:10014000B7010008B7010008B7010008B7010008AF
:10015000B7010008B7010008B7010008B70100089F
:10016000B7010008B7010008B7010008B70100088F
:10017000B7010008B7010008B7010008B70100087F
:10018000B7010008B7010008DFF80CD000F0B6F89E
:1001900000480047F194000870500120064880474D
:1001A00006480047FEE7FEE7FEE7FEE7FEE7FEE75C
:1001B000FEE7FEE7FEE7FEE7B567000889010008F5
:1001C00072B6704762B67047EFF3108072B6704730
:1001D00080F31088704730BF704720BF7047B0FA77
:1001E00080F0704790FAA0F0B0FA80F0704790FA73
:1001F000A0F070472DE9F05F0546002092469B462F
:1002000088460646814640241BE02846414647462C
:10021000224600F063F853465A46C01A914110D363
:1002200011461846224600F04AF82D1A67EB0108DD
:100230004F4622460120002100F041F817EB00094B
:100240004E41201EA4F10104DFDC484631462A4617
:100250004346BDE8F09FD2B201E000F8012B491EF1
:10026000FBD270470022F6E710B513460A46044653
:100270001946FFF7F0FF204610BD421C10F8011B85
:100280000029FBD1801A704710B5002200E0521CF3
:10029000835C8C5CA34201D1002BF8D1D8B2E1B2CF
:1002A000401A10BD30B504460020034600E05B1C38
:1002B000934203D2E05CCD5C401BF8D030BD202AD5
:1002C00004DB203A00FA02F1002070479140C2F1AD
:1002D000200320FA03F3194390407047202A04DBDF
:1002E000203A21FA02F00021704721FA02F3D040AF
:1002F000C2F120029140084319467047064C074D51
:1003000006E0E06840F0010394E8070098471034E5
:10031000AC42F6D3FFF73CFF949D0008B49D000863
:1003200070B58C1810F8015B15F0070301D110F8B7
:10033000013B2A1106D110F8012B03E010F8016BE4
:1003400001F8016B5B1EF9D12B0705D40023521E67
:100350000DD401F8013BFAE710F8013BCB1A921CCF
:1003600003E013F8015B01F8015B521EF9D5A142CD
:10037000D8D3002070BD0000EFF3098141B1F1EE48
:10038000101A40F8041D20ED200A24490A68106064
:100390007047B0EC200A02C8E1EE101A20490A6842
:1003A000106070471F484FF0FF010170002080F37C
:1003B00009881D48016881F308881C484FF0805166
:1003C000016062B6FEE719484FF080510160704746
:1003D00016484FF080510160704772B6EFF3098004
:1003E00028B1203880E8F00F0C490968086000B592
:1003F0000F4880475DF804EB0E480F490A780270F9
:10040000064807490A680260106890E8F00F20303B
:1004100080F309884EF0F40E62B670477C0100202C
:100420008001002022ED00E08401002004ED00E0C6
:10043000C12F00080A0100200B01002001600023E9
:1004400043608360C2600361704700001CB50121F6
:10045000402005F0A5FB8020009001208DF80400CD
:1004600000208DF8060003208DF8050002208DF88D
:1004700007006946034800F02FFA8021014800F088
:10048000DFFB1CBD001802401FB5684605F0B4FC38
:10049000019804B010BD00BFFEE710B500F020F8D1
:1004A00000F01AF810BD000010B5002400BF00BF16
:1004B000FFF78AFE044600BF00BF1021054801F087
:1004C00015F900BF00BF2046FFF782FE00BF00BF46
:1004D00010BD000078EF002010B5FFF7E5FF10BD5C
:1004E00010B500200249086000F00AF810BD0000B5
:1004F0009001002001490860704700009001002031
:1005000010B5FFF7C1FF04460848006840F080704E
:10051000064908600020064948600846006840F027
:10052000010008602046FFF7E5FF10BDFCED00E08C
:10053000001000E00149486870470000001000E02A
:10054000704700007CB505460E4616A11848FFF717
:100550009BFEB8B90020032181F30401154A02EB88
:100560008101C1F8800214480068FFF786FE84B25A
:1005700001A80023224600900F4801680F4802F0AE
:1005800033FA0DE00EA10A48FFF77EFE40B90120C4
:10059000032181F30401074A02EB8101C1F88002C3
:1005A0007CBD0000302C434F4E4E454354000000AC
:1005B00028B300200000424200000020A8B3002021
:1005C000302C434C4F5345440000000070B58AB0B6
:1005D00005460E46164903C9CDE90301314605A873
:1005E00000F0F6FF04460D222046611CCCB205A99E
:1005F0000A540A222046611CCCB205A90A54BDF84F
:100600001010039809F07AF9214605A809F076F947
:1006100009A80021C8230A46CDE90010084602F0C7
:100620002BFD3146284609F069F90AB070BD00007B
:10063000B89A00080EB500240DE002A8002301AA14
:1006400019460090184602F0C7F80446BDF8041099
:100650002046FFF7BBFFF0E70EB500250024002081
:1006600001900026002700F0A3F809F055F906F0E4
:10067000D5F84FF4006244494448FFF7DFFE81E0BB
:1006800002AB00221146104602F0F8F9002006469F
:1006900004460546074680213D48FFF7E3FD6FE02D
:1006A00001A93A4805F064FABDF80800002847D1CE
:1006B000E6B9802C1ADA9DF8040021280ADB9DF89F
:1006C00004007E2806DC9DF804202046611C8CB2C4
:1006D0002F490A54072C48D122462EA12C48FFF757
:1006E000E1FD002841D1012600243EE0012E15D174
:1006F000802C13DA9DF804202046611C8CB224491A
:100700000A549DF804003A282FD1601EC1B2204837
:1007100006F034F8384487B2022626E0022E24D1AF
:100720009DF804202846691C8DB21C490A54BD421C
:100730001BD100260024294619A006F0EBFE14E088
:10074000BDF8080047F2D92188420ED145B102A870
:1007500000232A4611490090134802F045F903E0AE
:1007600021460B48FFF7EEFE0BE010480068AD2174
:10077000B0FBF1F802AB00221146404602F07EF9D0
:100780008EE700BF7CE7000028AB002014AB002000
:1007900028B300202B4950442C302C000000006866
:1007A00025640D0A0000000060BC0020209B0008AA
:1007B0001CB50121042005F0F3F90220009001206E
:1007C0008DF8040000208DF8060003208DF8050048
:1007D00001208DF807006946034800F07DF80221EA
:1007E000014800F08BFA1CBD0008024030B50446F9
:1007F0000D4600222946204600F002F830BD0000D8
:10080000F0B50346012500241148407A01281CDA7E
:1008100000200F4E767A0E4FB8553846467A001DA6
:1008200040F82630001F467A083082553E46707ADE
:10083000461C7E72044604F1300008703A2048706D
:100840002F2088700020C87000252846F0BD0000C9
:100850006410012010B5ADF5825D4FF4805010ABEF
:1008600002460121009003A007F0D2FB0DF5825D46
:1008700010BD0000303A000010B5044606F072FDCD
:10088000002010BD10B5044606F0A6FC10BD2DE9F1
:10089000F04180460D4616461C4600274FF6FF7075
:1008A00000EA04323103284606F0DAFC3846BDE897
:1008B000F0812DE9F04180460D4616461C46002782
:1008C0004FF6FF7000EA04323103284606F054FD6B
:1008D0003846BDE8F08100002DE9F04104460D46A0
:1008E00000260027B046544884421DD05348844215
:1008F0001AD05348844217D05248844214D05248E8
:10090000844211D0514884420ED0514884420BD0C9
:100910005048844208D05048844205D04F48844211
:1009200002D04F48844200D103E0CF214DA006F011
:100930008AFF288880B200B103E0D02149A006F0E8
:1009400082FF287940B12879012805D0287902282A
:1009500002D02879032800D103E0D12141A006F07C
:1009600072FFE87928B1E879012802D0E8790228F5
:1009700000D103E0D2213BA006F065FF002657E03E
:10098000012000FA06F7286800EA0708B8454ED1AA
:10099000206872000321914088432060287971000B
:1009A00088402168084320602879012802D02879EE
:1009B000022830D1687940B16879012805D068797A
:1009C000022802D06879032800D103E0E42125A0A1
:1009D00006F039FFA0687200032191408843A060AF
:1009E000687971008840A1680843A060A87910B1B7
:1009F000A879012800D103E0EB211AA006F023FF1B
:100A000061680120B040814361606168A879B040AD
:100A100080B201436160E068720003219140884325
:100A2000E060E87971008840E1680843E060761C86
:100A3000102EA5D3BDE8F081000002400004024062
:100A400000080240000C0240001002400014024066
:100A500000180240001C0240002002400024024016
:100A6000002802402E2E5C53544D333246345F46EC
:100A7000574C49425C7372635C73746D33326634F5
:100A800078785F6770696F2E630000002DE9F04190
:100A900006460D4614460027B846544886421DD0E7
:100AA000534886421AD05348864217D0524886424D
:100AB00014D05248864211D0514886420ED0514837
:100AC00086420BD05048864208D05048864205D016
:100AD0004F48864202D04F48864200D104E040F29F
:100AE00049214DA006F0AFFEEDB1012D1BD0022D26
:100AF00019D0032D17D0042D15D0052D13D0062D98
:100B000011D0072D0FD0082D0DD0092D0BD00A2D97
:100B100009D00B2D07D00C2D05D00D2D03D00E2D97
:100B200001D00F2D00D104E040F24A213AA006F096
:100B30008AFEA4B3092C32D08CB384B37CB374B3D3
:100B4000012C2CD02BD0022C29D028D027D0032C3C
:100B500025D0042C23D022D021D0052C1FD01ED08C
:100B6000092C1CD0062C1AD0092C18D0072C16D012
:100B700015D014D0082C12D011D010D0092C0ED0C2
:100B80000DD00A2C0BD00AD00B2C08D00C2C06D080
:100B900005D00D2C03D00F2C01D00C2C00D104E07B
:100BA00040F24B211CA006F04EFE6807C00E04FA6E
:100BB00000F7E91006F1200050F821006907CA0E7D
:100BC0000F2191408843EA1006F1200141F82200EC
:100BD000E91006F1200050F8210040EA0708E9106A
:100BE00006F1200040F82180BDE8F08100000240BD
:100BF0000004024000080240000C024000100240C5
:100C00000014024000180240001C02400020024074
:100C100000240240002802402E2E5C53544D3332F3
:100C200046345F46574C49425C7372635C73746D23
:100C30003332663478785F6770696F2E6300000026
:100C400070B504460D46184884421DD017488442AA
:100C50001AD01748844217D01648844214D0164838
:100C6000844211D0154884420ED0154884420BD0DE
:100C70001448844208D01448844205D01348844262
:100C800002D01348844200D104E04FF4DA7111A07D
:100C900006F0D9FDA8B200B104E040F2B5110DA0F4
:100CA00006F0D1FD658370BD0000024000040240E3
:100CB00000080240000C02400010024000140240F4
:100CC00000180240001C02400020024000240240A4
:100CD000002802402E2E5C53544D333246345F467A
:100CE000574C49425C7372635C73746D3332663483
:100CF00078785F6770696F2E6300000070B50446F6
:100D00000D46184884421DD0174884421AD017480F
:100D1000844217D01648844214D01648844211D019
:100D2000154884420ED0154884420BD014488442A2
:100D300008D01448844205D01348844202D0134896
:100D4000844200D104E040F29F1111A006F07BFD27
:100D5000A8B200B104E04FF4D0710DA006F073FD0D
:100D6000258370BD000002400004024000080240DC
:100D7000000C024000100240001402400018024023
:100D8000001C0240002002400024024000280240D3
:100D90002E2E5C53544D333246345F46574C4942F5
:100DA0005C7372635C73746D3332663478785F673A
:100DB00070696F2E6300000000BFFEE72DE9F0416F
:100DC00086B0044688460020059004900026072738
:100DD0000120032181F30401444A02EB8101C1F89F
:100DE00080020020042181F3040102EB8101C1F89B
:100DF00080020021092080F304003D4A02EB8000BC
:100E0000C0F8801203A8002307223AA100903B48B3
:100E1000006801F0E9FD032239A12046FFF742FAFC
:100E200028B905AA0421E01C05F06AFC28B90620AF
:100E300000F014FA06B0BDE8F081052231A104F1FA
:100E40000800FFF72FFA30B904AA082104F10D00B9
:100E500005F056FC18B9072000F000FAEAE703A8ED
:100E600000214FF4FA730A46CDE90010084602F05B
:100E700003F903A80023052224A100901F4800685D
:100E800001F0B2FD03A8002302AA194600901846FB
:100E900001F0A2FC0546BDF80810284608F0ACF9A0
:100EA000BDF8141088420AD0BDF80820BDF814100F
:100EB00018A006F02FFB062000F0D0F9BAE703A82F
:100EC00000231A4619460090154800F0C3FEBDF8ED
:100ED0001420049BBDF80810284600F091FA03AADC
:100EE00000210F4801F022F800BFA3E700004242B2
:100EF00000004342574149542E2E2E00040000208A
:100F0000435243005341444452000000524541447F
:100F10005900000025580D0A25640D0A0000000044
:100F2000E80F012010B50122032383F304030B4CC7
:100F300004EB8303C3F880220023042282F304021B
:100F400004EB8202C2F880320122092383F30403F6
:100F5000034C04EB8303C3F8802210BD000042421F
:100F60000000434270B590B005460E46002401A82B
:100F700000F0F4F9044607E004EB840001AA02EB58
:100F8000400111A006F0C6FA201EA4F10101CCB266
:100F9000F2D1032181F304010D4A02EB8101C1F872
:100FA0008002042181F3040102EB8101C1F8800277
:100FB0000120092181F30401064A02EB8101C1F8F5
:100FC000800210B070BD000025730D0A0000000003
:100FD000000042420000434210B50122032383F384
:100FE00004030B4C04EB8303C3F880220123042287
:100FF00082F3040204EB8202C2F880320022092349
:1010000083F30403034C04EB8303C3F8802210BD75
:10101000000042420000434210B50022032383F344
:1010200004030B4C04EB8303C3F880220123042246
:1010300082F3040204EB8202C2F880320022092308
:1010400083F30403034C04EB8303C3F8802210BD35
:1010500000004242000043423EB504460D460222D3
:1010600025A12046FFF71EF9F8B902A800230F2298
:1010700022A100902548006801F0B6FC0120244917
:10108000087002A800214FF4FA730A46CDE9001057
:10109000084601F0F1FF02A800230A221DA10090DA
:1010A0001A48006801F0A0FC24E002221CA120469E
:1010B000FFF7F8F8F0B902A80023122219A1009056
:1010C0001248006801F090FC00201149087002A845
:1010D00000214FF4FA730A46CDE90010084601F0EA
:1010E000CBFF02A800230A220AA10090074800684B
:1010F00001F07AFC3EBD00003D31000052656164A4
:101100002070726F74656374696F6E000400002054
:10111000880000200D0A524553204F4B0D0A000055
:101120003D300000556E20526561642070726F740E
:10113000656374696F6E000010B50022032383F3AA
:1011400004030B4C04EB8303C3F880220123042225
:1011500082F3040204EB8202C2F8803201220923E6
:1011600083F30403034C04EB8303C3F8802210BD14
:1011700000004242000043423EB504460D460222B2
:1011800025A12046FFF78EF8F8B902A80023102207
:1011900022A100902648006801F026FC0220254983
:1011A000087002A800214FF4FA730A46CDE9001036
:1011B000084601F061FF02A800230A221EA1009048
:1011C0001B48006801F010FC24E002221DA120460B
:1011D000FFF768F8F0B902A8002313221AA10090C3
:1011E0001348006801F000FC00201249087002A8B2
:1011F00000214FF4FA730A46CDE90010084601F0C9
:101200003BFF02A800230A220BA1009008480068B7
:1012100001F0EAFB3EBD00003D31000057726974E9
:10122000652070726F74656374696F6E00000000F2
:1012300004000020890000200D0A524553204F4B26
:101240000D0A00003D300000556E2057726974652C
:101250002070726F74656374696F6E003EB50446EA
:10126000082C3BD2DFE804F03A060405121C2630B5
:1012700000BF00BF02A80023009023480288234833
:1012800001682348006801F0AFFB28E002A80023B2
:101290000F2220A100901E48006801F0A5FB1EE06F
:1012A00002A8002310221FA100901948006801F035
:1012B0009BFB14E002A8002306221FA10090144803
:1012C000006801F091FB0AE002A8002308221CA19B
:1012D00000900F48006801F087FB00E000BF00BFEE
:1012E00002A800214FF4FA730A46CDE9001008461F
:1012F00001F0C2FE02A800230D2214A100900448B0
:10130000006801F071FB3EBD8A0000208C000020C7
:1013100004000020526561642070726F746563740C
:10132000696F6E0057726974652070726F746563BF
:1013300074696F6E00000000435243455252000032
:101340005341444452455252000000000D0A524598
:1013500053204552524F450D0A00000070B58CB025
:101360000446002620A1684607F0DAFA0546002D5B
:1013700036D133E01D49684607F0EFFB054615B945
:101380001A48407A00B92AE01848007A00F01000A4
:1013900020BB1648407A502803D01448407A702861
:1013A0001CD1042212A111480B30FEF77BFF30B193
:1013B000042211A10D480B30FEF774FF70B90B48E1
:1013C000807A303800EB800004EB40000749093197
:1013D0000A68026089888180701CC6B2CAE700BFB3
:1013E00030460CB070BD0000000000002C10012041
:1013F0002E42494E000000002E62696E000000007F
:101400002DE9F04395B004460D4617461E464FF0B1
:1014100000091EA207CA8DE80700DFF87C8006A835
:10142000FFF79CFF81469DF803004844C0B28DF849
:101430000300012219A1404607F028F90A22694653
:10144000174807F053F93A4616A103A806F072F8B8
:1014500005AB042203A9124807F0F6FB324611A19E
:1014600003A806F067F805AB062203A90C4807F0AD
:10147000EBFB05AB2A462146094807F0E5FB084887
:1014800006F0B0FD002015B0BDE8F083303A5030D2
:101490002E42494E0000000088EF0020303A000044
:1014A000B8FF0020257800001CB500256AE0002464
:1014B000002501A80023344A19460090184601F07F
:1014C0008BF93249086009684819032230A1FEF7F8
:1014D000E9FE38B92C480088401E2C490968085C90
:1014E0003B2803D00220FFF7B9FE4BE0E81C85B291
:1014F00000BF284B03EB04135A7A264B03EB04136B
:101500005968224B1B685819FEF7CCFE70BB214866
:1015100000EB0410007A20490978084018B1042033
:10152000FFF79CFE27E01B4800EB0410007A1B49E4
:101530000978084018B10520FFF790FE1BE0154818
:1015400000EB0410C06880B10F4B1B885B1B99B285
:10155000104B03EB04135B7A2B440C4E366898193E
:101560000C4B03EB0413DA68904704E0601CC0B234
:1015700004460828BDDB00BF082C02D10320FFF77A
:101580006DFE00BF93E700008A0000208C00002061
:1015900049415000080000208800002089000020F8
:1015A00010B50246D2E9033098420FD29368106812
:1015B000C1549068401CD368B0FBF3F403FB1400E3
:1015C00090601069401C1061012010BD0020FCE7F4
:1015D000F0B505460C4600260A2C04D204F1300072
:1015E00028700120F0BD0A20B4FBF0F739462846E8
:1015F000FFF7EEFF401CC6B20A20B4FBF0F100FB7F
:1016000011403030711E68543046EBE71CB50121A3
:10161000202004F0C5FA4FF47070009000208DF87F
:10162000040003208DF8050001208DF807006946AD
:101630000148FFF751F91CBD001402401CB50121FF
:10164000502004F0ADFA1820009001208DF804001D
:1016500000208DF8060003208DF8050001208DF88C
:10166000070069460948FFF737F918210748FFF7CF
:1016700045FB4FF40070009069460548FFF72CF9D0
:101680004FF400710248FFF739FB1CBD0010024007
:101690000018024010B503490348FFF7A7F80349B3
:1016A000087010BD95010020A400002094010020C6
:1016B00010B5012000F002F810BD000070B504461E
:1016C000002500BF00BFFEF77FFD054600BF00BF3D
:1016D0000448046000BF00BF2846FEF779FD00BF44
:1016E00000BF70BD8801002000BFFEE730B5054691
:1016F0000C4622460021284600F026F830BD0000A6
:101700000D480E4901600146416000218160C160C1
:10171000016141618161C16101620163C162416234
:1017200007498163C1634FF48061016441640146EC
:10173000044A11607047000030EB002048454150DA
:1017400078EB00208C0100202DE9F04105460B4686
:1017500094460027002402E03F021F43641C042C2F
:10176000FAD3604605F00306294646B1344603E045
:1017700001F8013B401E641C08B1042CF8D30A4652
:1017800001E080C2001F0428FBD2114602E001F8EC
:10179000013B401E0028FAD1BDE8F08170470000EF
:1017A0002DE9F0410446002500270F26E07810B10E
:1017B000E078012800D103E08D2122A006F043F853
:1017C0006078102800DA03E08E211EA006F03BF8B6
:1017D000A078102800DA03E08F211AA006F033F871
:1017E000E07818B31E48006800F4E060C0F5E060DF
:1017F000C0F30725C5F10400C7B22E416078B84098
:10180000C5B2A078304005432807050E1548217859
:101810004554207800F01F010120884021784911AB
:10182000890001F1E021C1F8000109E0207800F011
:101830001F01012088400C492278521141F82200F2
:10184000BDE8F0812E2E5C53544D333246345F4652
:10185000574C49425C7372635C6D6973632E63001D
:101860000CED00E000E400E080E100E010B504468B
:10187000B4F5E06F0BD0B4F5C06F08D0B4F5A06F2D
:1018800005D0B4F5806F02D0B4F5407F00D103E0FD
:10189000792104A005F0D7FF0948204309490860D1
:1018A00010BD00002E2E5C53544D333246345F463B
:1018B000574C49425C7372635C6D6973632E6300BD
:1018C0000000FA050CED00E07047000010B5034879
:1018D000006810B101480068804710BDC8000020B2
:1018E00070B5044600F0BCF8002045490870454931
:1018F00008704549087045490860454908604549F0
:1019000008704549087045490870454908604549CF
:1019100008604549086045490870454800680A2143
:10192000B0FBF1F0434908604348006858B14348B0
:10193000056845B14048066803E0761E002028602F
:101940002D1D002EF9D100203D4908603D49086059
:101950003D4908603D4908603D4908603D490860CF
:101960003D4908603D49087002F094FC02F074FDA6
:10197000204601F0B3FD208800B170BD204602F082
:101980008BF9208800B1F8E7204602F091F9208811
:1019900000B1F2E7204602F0C1FA208800B1ECE77E
:1019A000204602F0A7FC208800B1E6E7204602F0BE
:1019B000C7FE208800B1E0E7204602F0CFFF208874
:1019C00000B1DAE7204602F0D3F8208800B1D4E76E
:1019D000204601F0EDFE208800B1CEE7204603F05E
:1019E00047FF208800B1C8E7204603F0A5FF208804
:1019F00000B1C2E701F09CFCFFF766FF00BFBCE747
:101A0000DC000020DD000020240100207C010020FB
:101A1000800100200A0100200B0100200C010020A1
:101A2000180100201C010020200100202C010020B2
:101A3000209B000828010020F09A0008EC9A00087A
:101A4000BC000020C0000020C4000020C80000200E
:101A5000CC000020D0000020D40000204201002053
:101A6000064800680649096800EB810005490860DE
:101A70000846006820F0070008607047EC9A0008EC
:101A8000F09A00088401002008480078012800D05E
:101A9000704707480078FA2800DBF9E70448007827
:101AA000401C0349087000BFF2E70000DD00002081
:101AB000DC00002010B500242D480078012800D05B
:101AC00010BD00BFFEF780FB044600BF2948007828
:101AD00028B900BF2046FEF77BFB00BFF0E7254892
:101AE0000078401E2349087008460078002805DD6C
:101AF00000BF2046FEF76CFB00BFE1E71E48007800
:101B0000002805DD00BF2046FEF762FB00BFD7E7D7
:101B100002F0ACFB194908700846007800EB400061
:101B2000174951F82000174908600846006816490F
:101B30000968884205D100BF2046FEF749FB00BF77
:101B4000BEE710480068D0F88C00401C0D490968B9
:101B5000C1F88C000D480068401C0C490860FEF775
:101B600037FC00BF2046FEF733FB00BF00BFA7E7EE
:101B7000DD000020DC000020240100200B010020FB
:101B800014E80020800100207C01002038010020A2
:101B90002DE9F04104460E461546002729480078F5
:101BA000002804DD42F6E1602880BDE8F0811CB920
:101BB00045F6C3502880F8E700BF00BF00BFFEF71E
:101BC00003FB074600BF00BF1F480078401C1E49AA
:101BD000087000BF00BF3846FEF7FAFA00BF00BF2A
:101BE00000BF1A48206066600020206284F825004B
:101BF000A062202084F8240004F1080002F045FAD5
:101C0000204602F073F912480088401C10490880F1
:101C100000BF00BF00BFFEF7D7FA074600BF00BFF6
:101C200009480078401E0849087000BF00BF3846C8
:101C3000FEF7CEFA00BF00BF00BF0020288000BF23
:101C4000B3E70000DC000020240100204D5554586B
:101C5000080100202DE9F04788B0054689469046E6
:101C60001C46109E4FF0000AAB480078002805DDA6
:101C700046F2AE10308008B0BDE8F0871DB945F6D9
:101C8000C3503080F7E7B8F1000F03D0B8F5004F2C
:101C900002D100E000BF03E045F625603080EAE7AE
:101CA00000BF9E492868884203D045F6C450308062
:101CB000E1E70CB10020206000BF00BFFEF784FA0E
:101CC000824600BF00BF95F82500C0B9944800685F
:101CD00028629348006890F8370085F824000120B6
:101CE00085F825000CB1A86A206000BF00BF5046EF
:101CF000FEF76EFA00BF00BF00203080BBE78849C6
:101D0000286A0968884212D195F82500401C85F898
:101D100025000CB1A86A206000BF00BF5046FEF746
:101D200057FA00BF00BF45F282703080A3E708F485
:101D3000004050B100BF00BF5046FEF749FA00BF57
:101D400000BF46F2B010308095E776480078002852
:101D50000ADD00BF00BF5046FEF73AFA00BF00BFE1
:101D600046F66350308086E700BF6E480078401C1E
:101D70006C49087000BF00BF5046FEF729FA00BF4B
:101D800000BF00BF2F6A97F837006549096891F8CE
:101D90003710884260DD97F8360008282AD2DFE83D
:101DA00000F004151E1F17162021384602F0DCFB38
:101DB0005B48006890F8370087F8370097F83700DD
:101DC00002F074FA384602F06FFB44E000BF00BF37
:101DD0005348006890F8370087F837003BE000BFB1
:101DE00000BF00BF4E48006890F83710384602F038
:101DF00029F930E000BF00BF00BFFEF7E5F98246D9
:101E000000BF00BF47480078401E4649087008469A
:101E10000078A0B944480088002809DD00BF00BF51
:101E20005046FEF7D5F900BF00BF02F0CBFB0DE036
:101E300000BF00BF5046FEF7CBF900BF06E000BF71
:101E400000BF5046FEF7C4F900BF00BF00BF46F612
:101E50002D6030800FE700BF4B46042229466846BC
:101E600002F068F800BF00BF00BFFEF7ADF9824680
:101E700000BF00BF2B480078401E2A49087000BFF1
:101E800000BF5046FEF7A4F900BF00BF00BF00F03E
:101E900073F900BF00BFFEF797F9824600BF00BF8D
:101EA0001F48006890F8350030B101280CD0022896
:101EB0001AD0032821D110E01CB119480068006C29
:101EC0002060002030801CE01CB115480068006CC8
:101ED000206046F2A910308013E00CB10020206091
:101EE00047F2D92030800CE01CB10D480068006C2E
:101EF000206045F6C250308003E046F62E60308008
:101F000000BF00BF00BF00BF5046FEF761F900BF31
:101F100000BF00BFAFE60000DC0000204D55545864
:101F20007C01002024010020E80000202DE9F84F6A
:101F30000446884615464FF0000A89480078002874
:101F400004DD46F20E202880BDE8F88F1CB945F666
:101F5000C3502880F8E7B8F1000F03D0B8F5004F60
:101F600002D100E000BF03E045F625602880EBE7E2
:101F700000BF7C492068884203D045F6C4502880C1
:101F8000E2E700BF00BFFEF71FF9824600BF00BFB7
:101F90007549206A096888420AD000BF00BF5046D0
:101FA000FEF716F900BF00BF45F281702880CBE72D
:101FB00000BF6E480078401C6C49087000BF00BF2D
:101FC0005046FEF705F900BF00BF00BFFEF7B2FAAA
:101FD0000746A76294F82500401E84F8250094F86F
:101FE0002500002830DD00BF00BF00BFFEF7ECF881
:101FF000824600BF00BF5D480078401E5B49087004
:1020000008460078A0B95A480088002809DD00BFBA
:1020100000BF5046FEF7DCF800BF00BF02F0D2FA66
:102020000DE000BF00BF5046FEF7D2F800BF06E04B
:1020300000BF00BF5046FEF7CBF800BF00BF00BF97
:1020400045F2837028807FE704F10809B9F8080099
:1020500098BB0020206284F8250000BF00BF00BFAD
:10206000FEF7B2F8824600BF00BF40480078401E2D
:102070003E49087008460078A0B93D48008800280D
:1020800009DD00BF00BF5046FEF7A2F800BF00BF49
:1020900002F098FA0DE000BF00BF5046FEF798F836
:1020A00000BF06E000BF00BF5046FEF791F800BF3A
:1020B00000BF00BF0020288046E7FFE72A480068ED
:1020C00090F8370094F82410884219D02648006808
:1020D00002F04AFA94F824002349096881F837008D
:1020E0002149096891F8370002F0E0F81E480068BD
:1020F00002F0FAF91C48006890F837001D49087092
:10210000D9F800008668266296F8370084F8240023
:10211000012084F8250000231A4631462046009706
:1021200002F024F800BF00BF00BFFEF74DF8824662
:1021300000BF00BF0D480078401E0C49087000BF6A
:1021400000BF5046FEF744F800BF00BF00BF08F4D0
:10215000004008B900F010F80020288000BFF3E626
:10216000DC0000204D5554587C0100202401002043
:10217000E80000200A01002010B500241F48007864
:10218000002800DD10BD1E480078002800DDF9E7BA
:1021900000BFFEF719F8044600BF02F067F81949BE
:1021A00008700846007800EB4000174951F82000FD
:1021B000164908600846006815490968884205D133
:1021C00000BF2046FEF704F800BFDBE70F480068B9
:1021D000D0F88C00401C0D490968C1F88C000D48EE
:1021E0000068401C0B490860FEF7EDF800BF204670
:1021F000FDF7EEFF00BF00BFC4E70000DC000020D9
:10220000240100200B01002014E8002080010020A0
:102210007C0100203801002070B5044600251848D4
:102220000078002803DD46F66250208070BD154816
:102230000078012803D045F689602080F6E712482F
:102240000078FA2803DB45F209202080EEE700BF82
:1022500000BFFDF7B9FF054600BF00BF0A48007880
:10226000401C0949087002F0D7F900BF00BF28469A
:10227000FDF7AEFF00BF00BF0020208000BFD5E704
:10228000DC000020DD0000202401002070B50446A1
:10229000002520480078002803DD46F665502080A0
:1022A00070BD1D480078012803D045F68960208064
:1022B000F6E71A48007818B946F664502080EFE730
:1022C00000BF00BFFDF780FF054600BF00BF1348F9
:1022D0000078401E114908700846007800280ADD81
:1022E00000BF00BF2846FDF773FF00BF00BF46F6E2
:1022F00063502080D4E702F09DF900BF00BF28465C
:10230000FDF766FF00BF00BFFFF736FF002020800B
:1023100000BFC5E7DC000020DD0000202401002014
:1023200010B5044612480078E8B901F09FFF114942
:10233000087008460078104908700E48007800EBD5
:1023400040000E4951F820000D4908600846006819
:102350000C490860012006490870FEF723F843F68F
:102360009920208002E045F68A60208010BD0000A0
:10237000DD0000200B0100200A01002014E80020ED
:10238000800100207C0100202DE9FF4F87B004462A
:102390009046DDE91BA5DDE91496179F0020039008
:1023A00087480078002805DD47F24A1028800BB0E6
:1023B000BDE8F08F1CB947F2AD102880F7E7B8F1FF
:1023C000000F03D147F24F102880F0E71EB946F600
:1023D0002F602880EBE77B480068874203D246F6EF
:1023E00030602880E3E71698B84203D346F63160A0
:1023F0002880DCE7B9F1200F03D346F27320288050
:10240000D5E7B9F1000F06D16F48844203D046F2F8
:1024100073202880CBE7B9F11F0F06D16B488442A7
:1024200003D046F273202880C1E7204602F0A6FAC6
:10243000002028800AF0010090B10AF0020078B173
:1024400005960020069008E0002105980160059897
:10245000001D05900698401C06900698B842F3D3DC
:10246000169806EB80000490CDE9007A324640468B
:10247000049B0A9900F042FC0590C4F828800A9851
:10248000E0620898206284F83790059820600498EC
:10249000A06019982065199818B94D4800686065C2
:1024A00001E0199860651A9860606662A763A4F8F5
:1024B0003CA04FF0000B08E0002104F1780040F848
:1024C0002B100BF1010000F0FF0BBBF1000FF3D05C
:1024D00004F16000189901F07FFC204600F082F8BA
:1024E00000BF00BF00BFFDF76FFE039000BF00BF3D
:1024F00038480078401C3749087000BF00BF039877
:10250000FDF766FE00BF00BF00BF94F8370001F082
:10251000CDFE204601F0E8FF204602F0E5F92E4806
:102520000088401C2C4908802C48007801282DD0B8
:1025300000BF00BF00BFFDF747FE039000BF00BF14
:1025400024480078401E2349087008460078A0B946
:1025500023480088002809DD00BF00BF0398FDF76D
:1025600037FE00BF00BF02F02DF80DE000BF00BF36
:102570000398FDF72DFE00BF06E000BF00BF0398E3
:10258000FDF726FE00BF00BF00BF10E700BF00BF81
:1025900000BFFDF719FE039000BF00BF0D48007893
:1025A000401E0C49087000BF00BF0398FDF710FEE5
:1025B00000BF00BF00BFFFF7DFFD00BFF7E6000070
:1025C000DC0000201C9B000850E7002098E600205B
:1025D000280100202401002040010020DD0000200F
:1025E000E800002010B504460348006818B12046F2
:1025F00001490968884710BDBC00002070B5044639
:102600000D46002667480078002803DD47F24E108B
:10261000288070BD6448844203D147F24C10288062
:10262000F7E76248844203D147F24D102880F0E773
:102630007CB900BF00BFFDF7C7FD064600BF00BF65
:102640005B48046800BF00BF3046FDF7C1FD00BF16
:1026500000BF00BF00BF00BFFDF7B6FD064600BFCC
:1026600000BF54480078401C5249087000BF00BFAA
:102670003046FDF7ADFD00BF00BF00BF94F8360047
:1026800008282DD2DFE800F004090E10080A0F1107
:10269000204601F069FF54E053E000BF204602F0FD
:1026A00025FF4EE000BF00BF00BF94F834000828AB
:1026B00010D2DFE800F004070508090A0B0600BF86
:1026C00000BF08E000BF00BF00BF00BF204601F010
:1026D00014FD00E000BF00BF204602F007FF30E01D
:1026E00000BF00BF00BFFDF76FFD064600BF00BF83
:1026F00030480078401E2F49087008460078A0B97D
:102700002D480088002809DD00BF00BF3046FDF7D6
:102710005FFD00BF00BF01F055FF0DE000BF00BF2F
:102720003046FDF755FD00BF06E000BF00BF304654
:10273000FDF74EFD00BF00BF00BF46F62D602880AC
:1027400067E700BF04F1600001F0F0FA204600F0F6
:1027500037F8204602F0E0F818480088401E174974
:102760000880204602F00AF9FF2084F8360000BFF6
:1027700000BF00BFFDF728FD064600BF00BF0D48A3
:102780000078401E0B49087000BF00BF3046FDF7BF
:102790001FFD00BF00BF00BF00202880FFF7ECFC3A
:1027A00000BF36E7DC00002098E6002050E700205C
:1027B0007C01002024010020E800002040010020CE
:1027C00010B504460348006818B12046014909685D
:1027D000884710BDC00000202DE9F05F80460F46FD
:1027E00016461C460A9D4FF0000B7C4800780028D6
:1027F00005DD46F2AE1028800020BDE8F09F26B926
:1028000046F2D52028800020F7E71FB1B7F5004F2A
:1028100002D100E000BF04E045F6256028800020DA
:10282000EBE700BF0CB10020206000BF00BFFDF748
:10283000CBFC834600BF00BF6948006800F1600917
:102840002B4622463146484601F092FA82462888B5
:10285000F0B9A4B1FDF76EFE2168401A604909681D
:1028600008675F480068406F5D490968096F8842E2
:1028700005D25B480068006F59490968486700BF86
:1028800000BF5846FDF7A4FC00BF00BF5046B4E7A8
:1028900007F4004058B146F2B010288000BF00BFD6
:1028A0005846FDF795FC00BF00BF0020A5E74D4846
:1028B000007800280BDD00BF00BF5846FDF788FCFC
:1028C00000BF00BF46F663502880002095E700BF98
:1028D00044480078401C4349087000BF00BF584678
:1028E000FDF776FC00BF00BF00BF43460222002177
:1028F000084601F01FFB00BF00BF00BFFDF764FCEE
:10290000834600BF00BF37480078401E3549087035
:1029100000BF00BF5846FDF75BFC00BF00BF00BF13
:10292000FFF72AFC00BF00BFFDF74EFC834600BF47
:1029300000BF2B48006890F8350020B101282AD04C
:10294000032832D132E026480068D0F858A0244845
:102950000068B0F85C003080D4B121480068006C99
:102960002060FDF7E7FD1E490968096C401A1C4903
:10297000096808671A480068406F19490968096FB3
:10298000884205D216480068006F154909684867F3
:102990000020288017E04FF0000A0020308004B1AA
:1029A000206046F2A91028800DE000BF4FF0000A19
:1029B000002030801CB10A480068006C206047F29B
:1029C000D920288000BF00BF00BF00BF5846FDF7D8
:1029D000FFFB00BF00BF50460FE70000DC000020F7
:1029E0007C010020240100202DE9FF47074688468E
:1029F00091461D460C9E4DB1102D08D0B5F5004FE7
:102A000006D0A5F50040103820B902E000BF00BF95
:102A100000BF04E045F625603080BDE8FF8700BFB9
:102A2000FDF788FD04460D48007800280BDD0020E6
:102A30004B4642463946CDE90246CDE900050848F5
:102A400000F0EEFEE9E72B464A4641463846CDE91E
:102A5000004601F0EDFF00BFDFE70000DC000020D2
:102A6000544D534710B504460348006818B120463A
:102A700001490968884710BDC40000202DE9F047CE
:102A800080460E4614461D464FF000097D480078EA
:102A9000002805DD46F2AE1028800020BDE8F08752
:102AA0001EB1B6F5004F02D100E000BF04E045F6CC
:102AB000256028800020F1E700BF0CB100202060D5
:102AC00000BF00BFFDF780FB814600BF00BF6E481E
:102AD0000068406CA8B36C480068406C401E6A49AE
:102AE0000968486468480068476C1CB1664800681B
:102AF000006C2060FDF71EFD63490968096C401AEF
:102B000061490968C1F8A0005F480068D0F8A400D6
:102B10005D490968D1F8A010884207D25A48006878
:102B2000D0F8A00058490968C1F8A40000BF00BF50
:102B30004846FDF74DFB00BF00BF00202880384607
:102B4000ACE7FFE706F4004058B100BF00BF4846BD
:102B5000FDF73EFB00BF00BF46F2B010288000200A
:102B60009CE74A48007800280BDD00BF00BF4846BC
:102B7000FDF72EFB00BF00BF46F663502880002003
:102B80008CE700BF41480078401C4049087000BFF6
:102B900000BF4846FDF71CFB00BF00BF00BF434617
:102BA00007220021084601F0C5F900BF00BF00BFA1
:102BB000FDF70AFB814600BF00BF34480078401E85
:102BC0003249087000BF00BF4846FDF701FB00BF57
:102BD00000BF00BFFFF7D0FA00BF00BFFDF7F4FA57
:102BE000814600BF00BF2848006890F8350020B13A
:102BF000012826D0032834D12CE0FCB122480068FB
:102C0000006C2060FDF796FC1F490968096C401AAA
:102C10001D490968C1F8A0001B480068D0F8A4004D
:102C200019490968D1F8A010884207D216480068EF
:102C3000D0F8A00014490968C1F8A4000020288039
:102C400013E01CB110480068006C206046F2A91027
:102C500028800AE00CB10020206047F2D9202880AB
:102C600003E046F62E60288000BF00BF06480068DB
:102C7000476C00BF00BF4846FDF7AAFA00BF00BF7F
:102C800038460BE7DC0000207C01002024010020F6
:102C90002DE9FF4106460F4614461FB1B7F5004F18
:102CA00002D100E000BF06E045F62560208000204C
:102CB00004B0BDE8F08100BFFDF73CFC05460D48BF
:102CC000007800280CDD00200090034602463146C3
:102CD000CDE902540190084800F0A2FD0020E7E78A
:102CE00023462A463946304602F054F8804640468C
:102CF000DEE70000DC00002054534947F0B50446ED
:102D0000DDE9055602EB850020F007004FF0807CDE
:102D1000071F3846C7F800C0071F38463C60DFF879
:102D200034C2071F3846C7F800C04FF0123C071FD7
:102D30003846C7F800C04FF0033C071F3846C7F8B5
:102D400000C04FF0023C071F3846C7F800C0071FFD
:102D500038463B60071F384639604FF0113C071F6B
:102D60003846C7F800C04FF0103C071F3846C7F878
:102D700000C04FF0093C071F3846C7F800C04FF0AD
:102D8000083C071F3846C7F800C04FF0073C071F34
:102D90003846C7F800C04FF0063C071F3846C7F852
:102DA00000C04FF0053C071F3846C7F800C04FF081
:102DB000043C071F3846C7F800C006F00407002F80
:102DC0007ED04FF0007C071F3846C7F800C0DFF800
:102DD00088C1071F3846C7F800C0DFF880C1071F49
:102DE0003846C7F800C0DFF878C1071F3846C7F873
:102DF00000C0DFF870C1071F3846C7F800C0DFF811
:102E000068C1071F3846C7F800C0DFF860C1071F58
:102E10003846C7F800C0DFF858C1071F3846C7F862
:102E200000C0DFF850C1071F3846C7F800C0DFF800
:102E300048C1071F3846C7F800C0DFF840C1071F68
:102E40003846C7F800C0DFF838C1071F3846C7F852
:102E500000C0DFF830C1071F3846C7F800C0DFF8F0
:102E600028C1071F3846C7F800C0DFF820C1071F78
:102E70003846C7F800C0DFF818C1071F3846C7F842
:102E800000C04FF0834C071F3846C7F800C0DFF87A
:102E900004C1071F3846C7F800C0DFF8FCC0071F91
:102EA0003846C7F800C0DFF8F4C0071F3846C7F837
:102EB00000C0DFF8ECC0071F3846C7F800C000E0CC
:102EC00047E0DFF8E0C0071F3846C7F800C0DFF86A
:102ED000D8C0071F3846C7F800C0DFF8D0C0071FAA
:102EE0003846C7F800C04FF0824C071F3846C7F875
:102EF00000C0DFF8BCC0071F3846C7F800C0DFF8C5
:102F0000B4C0071F3846C7F800C0DFF8ACC0071FC1
:102F10003846C7F800C04FF0814C071F3846C7F845
:102F200000C0DFF898C0071F3846C7F800C04FF050
:102F3000804C071F3846C7F800C04FF07E5C071F63
:102F40003846C7F800C04FF0000C071F3846C7F8D6
:102F500000C0F0BD7D4D00080000F8410000F041C8
:102F60000000E8410000E0410000D8410000D041ED
:102F70000000C8410000C0410000B8410000B0415D
:102F80000000A8410000A0410000984100009041CD
:102F90000000884100007041000060410000504185
:102FA000000040410000304100002041000010417D
:102FB0000000E0400000C0400000A0400000404091
:102FC00010B52948006890F83C0000F0040020B1DA
:102FD000254909680868FDF7CFF92448006890F88A
:102FE0003C0000F0040020B1204909680868FDF7A2
:102FF000D0F91F48006810B11D4800688047FDF7F0
:1030000099FA04461848006818490968884215D09A
:1030100015480068D0F89400201A13490968C1F8CF
:10302000900011480068D0F898000F490968D1F85D
:10303000901008440C490968C1F898000B480068D2
:10304000C0F8944008480068D0F8A8000949096809
:10305000884205D20748006803490968C1F8A800FA
:1030600000200449086010BD7C0100208001002080
:10307000D0000020200100202DE9FF5F05460E460C
:1030800017469846DDE90EA40020009070480078AD
:10309000002804DD47F275202080BDE8FF9F6D48C1
:1030A0000078002803DD46F663502080F5E70AF03B
:1030B0000E0BBBF1000F09D0BBF1020F07D0BBF123
:1030C000040F10D0BBF1080F0ED101E000BF00BF0C
:1030D000B8F1000F06D12FB926B91DB947F27E20ED
:1030E0002080DAE704E003E045F625602080D4E79D
:1030F00000BF2AF01E0008B1012000E0002003906C
:103100000398012803D145F625602080C5E7CAF35E
:10311000001002900298C0B9B8F57A7F03D347F245
:103120007B202080B9E73B2F03DD47F27A20208007
:10313000B3E73B2E03DD47F279202080ADE7632D16
:1031400012DD47F278202080A7E742F20F70864216
:1031500003DD47F2792020809FE7B5F57A7F03DB16
:1031600047F27820208098E73B48D0F800904FF451
:10317000FA70B0FBF9F0404400FB09F04FF47A71AB
:10318000B0FBF1F14FF461606843C6EB061200EB4F
:103190008200384400FB091001900198002851D0AA
:1031A00000BF00BF00BFFDF70FF8009000BF00BFD9
:1031B00028480078401C2749087000BF00BF0098CD
:1031C000FDF706F800BF00BF00BF23465A4623485C
:1031D0000199006802F02CF92088A8B100BF00BF57
:1031E00000BFFCF7F1FF009000BF00BF1948007856
:1031F000401E1849087000BF00BF0098FCF7E8FFA8
:1032000000BF00BF00BF48E71448006801F0ACF9F8
:1032100000BF00BF00BFFCF7D7FF009000BF00BF9A
:103220000C480078401E0B49087000BF00BF009892
:10323000FCF7CEFF00BF00BF00BFFEF79DFF0020E0
:10324000208002E047F27E20208000BF25E70000BA
:10325000DC00002024010020209B00087C010020CD
:1032600010B586B000F01EF8FDF764F9044605A815
:1032700000210091CDE9011403900748007800EB8C
:103280004000064A02EB800100231A46044800F081
:10329000C7FA06B010BD00000A01002014E80020A3
:1032A0005449434B10B50348006810B10148006809
:1032B000804710BDD400002010B50F4800780128C9
:1032C00018D1002400BF00BFFCF77EFF044600BFFA
:1032D00000BF0A480078401C0849087000BF00BFC2
:1032E0002046FCF775FF00BF00BFFFF7B9FFFEF7F0
:1032F000E1FB00BF10BD0000DD000020DC0000206D
:1033000001464A1E4FF0E0235A61084A106820F037
:103310007F4000BF10601A46126942F005021A6130
:103320001A46126942F002021A61704720ED00E06D
:10333000244A2549254A264A2649274A2748284A11
:10334000284A294A294A2A482A482B482B4A2C48E5
:103350002C4A2D482D4A2E482E482F482F48304AB7
:10336000304A314A3148324A324A33483348344885
:103370003448354835483648364A374A374A384A55
:103380003848394839483A4A3A4A3B4A3B483C4827
:103390003C483D493D483E4A3E4A3F4A3F4A404AF2
:1033A000404A414A4148424A424A43484348444AC3
:1033B000444A4548454A464A4648474800BF00BF38
:1033C00000BF7047549B0008B89C0008559B00083C
:1033D000569B0008589B00085C9B0008609B0008F7
:1033E0005D9B0008889B0008899B00088A9B000859
:1033F0008C9B00088E9B0008909B0008929B000805
:10340000949B0008B49B0008B69B0008B89B00087A
:10341000BA9B0008BC9B0008BE9B0008C09B00082C
:10342000EC9B0008ED9B0008EE9B0008F09B000859
:10343000F29B0008F39B0008F49B0008F69B000831
:10344000F89B0008FA9B0008FC9B0008FE9B000804
:10345000009C0008309C0008319C0008329C000849
:10346000339C0008349C0008369C0008389C0008F7
:10347000609C0008619C0008629C0008639C000836
:10348000649C0008669C0008689C00086C9C00080E
:103490006D9C00086E9C00086F9C0008709C0008E2
:1034A000719C0008729C0008739C0008749C0008C2
:1034B000769C0008779C0008789C00087A9C00089D
:1034C0007C9C00087D9C0008809C0008B09C000843
:1034D000B19C0008B29C0008B49C00080021034A7B
:1034E0001160034A1180018070470000F400002041
:1034F000F80000202DE9F04F85B004468946924639
:103500009B46DDF838800020009000BF00BFFCF72C
:103510005BFE009000BF00BFBAF1000F0AD0BAF105
:10352000010F0DD0BAF5004F05D06FF400405044A4
:1035300060B906E000BF206A40EA0900206214E09A
:1035400000BF206A20EA090020620EE000BF00BF31
:103550000098FCF73DFE00BF00BF45F62560A8F8C7
:103560000000002005B0BDE8F08F00BFC4F824B013
:1035700004F1080001900198008958B900BF00BF0C
:103580000098FCF725FE00BF00BF0020A8F800004F
:10359000206AE7E700BF5E480078401C5C4908707D
:1035A00000BF00BF0098FCF713FE00BF00BF00BFC4
:1035B00001980768BD6879E07868029095F8840002
:1035C00000F00F000390039801281ED0022829D094
:1035D000042802D0082830D10CE0206AE96F00EA04
:1035E0000106E86FB04204D15A463146284600F041
:1035F00093F855E0206AE96F00EA010626B15A46C1
:103600003146284600F088F84AE0E86F216A20EA4F
:103610000106E86FB04204D15A463146284600F010
:103620007BF83DE0E86F216A20EA010626B15A46A0
:103630003146284600F070F832E000BF00BF00BFFE
:10364000FCF7C2FD009000BF00BF31480078401E6B
:103650002F49087008460078A0B92E480088002835
:1036600009DD00BF00BF0098FCF7B2FD00BF00BF3E
:1036700000F0A8FF0DE000BF00BF0098FCF7A8FD18
:1036800000BF06E000BF00BF0098FCF7A1FD00BF2F
:1036900000BF00BF43F6FF20A8F80000002061E74C
:1036A00000BF029F0FB1BD6800E00025002D83D14F
:1036B00000BF00BF00BFFCF787FD009000BF00BF48
:1036C00013480078401E1249087000BF00BF0098E0
:1036D000FCF77EFD00BF00BF00BF0AF4004008B940
:1036E000FEF74AFD00BF00BFFCF76EFD009000BF73
:1036F00000BF206A049000BF00BF0098FCF768FD7F
:1037000000BF00BF0020A8F8000004982AE70000CE
:1037100024010020E800002070B504460E4615463E
:103720003434E664002060702070E560A078343C9A
:1037300008281DD2DFE800F004050809070617185D
:1037400000BF00BF00BF14E000BF94F8360003289C
:1037500002D1204601F0CAFE204600F08FFE002074
:1037600084F8360005E000BF042084F8360000E04D
:1037700000BF00BF204600F0C0FC70BD002414E074
:1037800000BF00BFFCF720FD044600BF00BF074894
:103790000068401C0549086000BF00BF2046FCF7D8
:1037A00017FD00BF00BFFEF791F8E9E7D800002041
:1037B00010B58AB0044600200E4908600B20002195
:1037C0000591CDE90704069108460B4909680B4AA3
:1037D00012680B4B1B68CDE90132CDE903101F20A5
:1037E0000023084A08A100900C48FEF7CDFD0AB05E
:1037F00010BD0000D8000020C89A0008C49A000834
:10380000C09A00087D37000875432F4F532D494952
:10381000492049646C65205461736B0098E6002070
:103820002DE9F84F04460D4616461F46DDE90BAB61
:10383000DDF82890DDF834800020009000BF00BF44
:10384000FCF7C2FC009000BF00BF2B4800882B494A
:10385000098888423EDA28480088401C26490880AA
:10386000274800880988884203DA234800882449C9
:103870000880244800680460224800688560214868
:103880000068C6601F48006807821E480068C0F8CC
:1038900014901C480068A0F818A01A480068C0F8E6
:1038A0001CB0184800684068164908600120164995
:1038B0000881164808604860002000F0F7FC1448B2
:1038C000007818B112480078124908700020A8F852
:1038D000000008E010480088401C0F49088044F2AE
:1038E0005360A8F8000000BF00BF0098FCF770FC10
:1038F00000BF00BFBDE8F88FE8000020D49A0008A0
:10390000EA000020E000002014E8002050E700203A
:103910000A0100200C010020EC0000203EB55948AF
:1039200000680068584A811A904279D00FDC5749E4
:10393000084400283ED056490844A8B155490844D7
:10394000002860D05449084400286AD13FE0534819
:103950000844002850D052490844002862D05149F8
:1039600008440028F1D110E002A8464D00902D68CF
:10397000EB69444D2D682A8B424D2D686969414D94
:103980002D68A868FFF7B6FD7AE002A93D480068F7
:10399000C0693C4DCDE900012D682B8B394D2D6858
:1039A0002A8A384D2D68E968364D2D68A86800F0E0
:1039B000ADFC65E0334B1B68DA69324B1B68198B31
:1039C000304B1B68986802AB00F0C6FE58E002A9B5
:1039D0002C480068C0692B4DCDE900012D682B8B68
:1039E000284D2D682A8A274D2D68E968254D2D68B8
:1039F000A86801F01DF843E022490968886802A917
:103A000001F01CF93CE01F4B1B68DA691D4B1B6879
:103A1000198B1C4B1B68986802AB01F0BBF92FE0B7
:103A200007E02CE017490968886802A901F014FC36
:103A300026E01D49097801EB41011C4A02EB810097
:103A400000F016FE0F48006802AB0021C26918485A
:103A500001F0A0F917480068401E164908600846A2
:103A6000006858B9144800680860FCF763FD044614
:103A700002AB22460021114801F08CF900E000BFA2
:103A800000BF3EBDE40000205449434BADBAB2BE76
:103A90000DF90BFAF2F8F7FF0006F6FF00F7FDF755
:103AA00000FFEFFF03FE0FFE0C01002014E80020D2
:103AB00094E90020780100207401002078EA0020B9
:103AC00000274CE0002648E000BF00BFFCF77CFB6D
:103AD000074600BF00BF2248008888B9002021495E
:103AE00008810860486000F0F3FB00BF00BF384663
:103AF000FCF76EFB00BF00BFFEF73EFB01262CE08B
:103B000000BF00BF3846FCF763FB00BF00BFFCF7F7
:103B100011FD0546FFF702FFFCF70CFD441B1248A0
:103B20000068A04201D21048046000BF00BFFCF74B
:103B30004BFB074600BF00BF0C48006840680B49BC
:103B4000086007480088401E0549088000BF00BF84
:103B50003846FCF73DFB00BF00BF002EB4D0B1E7F4
:103B6000E800002014E80020F0000020E40000201D
:103B7000F0B589B005460020314908803148006819
:103B800020B944F25260288009B0F0BD2E48008868
:103B9000022803DA44F254602880F5E700202B491C
:103BA0000860284804682646203600270CE028488C
:103BB00020600020A060E060208260612083666059
:103BC00020342036781C87B21F4800888742EEDBFD
:103BD000203C1C48066866601E4806601E48066059
:103BE00000201E4908801E4908801E48006818B938
:103BF00044F255602880C7E71B4800681B490968E4
:103C0000884203D244F256602880BDE70320002199
:103C10000591CDE90705069113480068144A12681A
:103C2000104B1B68CDE90301CDE9013200910B4631
:103C3000104A11A11748FEF7A7FB00BFA4E7000038
:103C4000EC000020D09A0008D49A0008F000002070
:103C50004E4F4E45E0000020E4000020E800002028
:103C6000EA000020DC9A0008E49A00081C9B000887
:103C7000E09A0008C13A000875432F4F532D494977
:103C80004920495352205175657565205461736B05
:103C90000000000050E700200021034A1160034AA1
:103CA0001180018070470000FC000020000100200E
:103CB00070B501461A4D2D681DB945F21E750D806F
:103CC00070BD184D2D881DB945F21D750D80F7E7A3
:103CD000134D28682A681032124D2D886D1EACB223
:103CE000002308E00260002545600581C5601030B2
:103CF00010325D1CABB2A342F4DB002505604560C9
:103D00000581C560064D2D68074E3560054D2D882F
:103D1000B5800025F58035810D8000BFD0E700001B
:103D2000009B0008F89A000808E8002010B501463A
:103D300048894B89002B17DD0A680C4B1B68136000
:103D40000A4C4B6823602346DB884C891B1B074CBD
:103D5000E38023469B884C892344044CA3800023A2
:103D60004B818B810B604B6010BD000008E8002088
:103D7000F0B504460D46608940B90020288002B1A4
:103D8000106046F2925018800020F0BD61684E68C5
:103D9000088928800AB1C868106008686060606897
:103DA00018B900202060608102E06089401E6081B7
:103DB000084800680860074801608088401C054F7B
:103DC000B8803846C088401EF880002018803046F1
:103DD000DBE7000008E800200181002242818281A7
:103DE00002604260704700002DE9F0410D46DDE9B8
:103DF0000674B0F80AC0B0F80880C44505DB46F286
:103E0000935CA4F800C0BDE8F081DFF8DCC0BCF82A
:103E100004C0BCF1000F04D145F21D7CA4F800C021
:103E2000F1E7DFF8C4C0DCF80010DFF8BC80D1F89F
:103E300000C0C8F800C0C446BCF804C0ACF1010C16
:103E4000A8F804C0C446BCF806C00CF1010CA8F8E0
:103E500006C0C446BCF808C0B8F80680C44507DAF6
:103E6000DFF884C0BCF806C0DFF87C80A8F808C082
:103E7000B0F80AC0BCF1000F0AD1016041604FF0F8
:103E8000010CA0F80AC04FF0000CC1F800C017E008
:103E900003F0100CBCF1000F07D10668316001601F
:103EA0004FF0000CC1F800C004E0D0F804C0C1F825
:103EB00000C04160B0F80AC00CF1010CA0F80AC0C3
:103EC000B0F80CC0B0F80A80C44503DAB0F80AC0F4
:103ED000A0F80CC04D600A81CF604FF0000CA4F830
:103EE00000C000BF8FE7000008E8002009A1C16101
:103EF000002141610849096811B90021816105E08B
:103F000005490968816104490968486102490860F6
:103F10007047000020000000040100200021034A37
:103F20001160034A118001807047000004010020E5
:103F3000080100202DE9F04105460C4616461F46B3
:103F40001548006880F8346000201349096881F83A
:103F5000350039461048006800F0B0FC6CB104F13F
:103F60000808EC60012229460B48006800F016F8AA
:103F70002946404600F08EF806E000200649096810
:103F8000C88705490968086303480168204600F0AE
:103F900019F8BDE8F08100007C01002010B5C2874F
:103FA000016300230AE000244C600C600C614C614A
:103FB0000C83CC61886020315C1CA3B29342F2DB9D
:103FC00010BD000030B548B14568C1F8B45000F1EB
:103FD0000804226893681D6AC56113E091F83450A3
:103FE000022D02D0072D08D103E007A5C1F8B45077
:103FF00007E007A5C1F8B45003E008A5C1F8B45024
:1040000000BF00BF30BD00005461736B2051000041
:104010005461736B2053656D0000000020000000A8
:1040200030B507A5C1F8B45000F1080422681AB1F0
:1040300093681D6AC56101E001A5C56130BD00003E
:10404000200000002DE9F04304460F4684F8377045
:10405000256BB4F83E8013E0D5F80C9009F1080602
:104060003089012807D92946304600F05EF82946F4
:10407000304600F00FF82035A8F101001FFA80F853
:10408000B8F1000FE8D1BDE8F08300210160416084
:1040900001817047F0B58E6896F8375007893FB9AF
:1040A0000127078100274F600F600160416023E016
:1040B00007897F1C0781026806E0946894F83770CE
:1040C000AF4200DD02E05268002AF6D100BF32B9EB
:1040D00000274F6043680B60596041600CE017682F
:1040E0002FB9116000270F604A60016004E0136877
:1040F0000B604A6059601160F0BD2DE9F041044643
:10410000256BE68F0AE0D5F80C8008F108072946F0
:10411000384600F00AF82035701E86B2002EF2DC18
:104120000020E0872063BDE8F08110B50489012CF0
:1041300003D100240460446011E00C6824B94A688B
:104140000024146002600AE04C6824B90B68002463
:104150005C60436003E00B684A685A60136004893E
:10416000641E048100244C600C6010BD2DE9F843EE
:1041700006460C4617469846089D94F836000828CF
:104180005BD2DFE800F0040508090607323300BF00
:1041900000BF00BF52E000BF94F83400032807D1ED
:1041A00043463A4621463046009500F04AF803E07F
:1041B000A765A4F85C80256436B12046FFF79DFF13
:1041C00021463046FFF72CFF94F83600032802D131
:1041D000204601F08BF9204600F050F900203434DD
:1041E000A070607004F8340928E000BF94F834002F
:1041F000032807D143463A4621463046009500F051
:1042000020F803E0A765A4F85C80256436B1204659
:10421000FFF773FF21463046FFF702FF94F83600A0
:10422000072802D1204601F061F904203434A0703F
:104230000020607004F8340900E000BF00BFBDE852
:10424000F883F0B50446059E086BCD8F0AE0C76879
:10425000A74204D1046142610383C66104E02030B7
:104260006F1EBDB2002DF2DC00BFF0BD70B50025A1
:10427000074C03E005F12000C5B2241D206800288A
:10428000F8D02068FBF7ABFF2844C5B2284670BDC4
:10429000B8000020002004E00021034A42F820106A
:1042A000401C0028F8D07047B800002030B5420903
:1042B00000F01F030121C3F11F04A140034C54F877
:1042C00022400C43014D45F8224030BDB80000208B
:1042D00030B5420900F01F030121C3F11F04A140C2
:1042E000034C54F822408C43014D45F8224030BD28
:1042F000B80000200021034A1160034A11800180A8
:104300007047000010010020140100202DE9F04F3B
:1043100085B007468A4693461C460020029000BF9F
:1043200000BF00BFFBF750FF029000BF00BF48482E
:104330000078401C4649087000BF00BF0298FBF798
:1043400047FF00BF00BF00BF07F108063089002803
:1043500042D104F0100010B94FF0000801E04FF016
:104360001008DDE90E0143465A46CDE900015146E9
:1043700007F12000FFF738FD00BF00BF00BFFBF7CB
:1043800023FF029000BF00BF31480078401E304933
:10439000087008460078A0B92E480088002809DD7A
:1043A00000BF00BF0298FBF713FF00BF00BF00F083
:1043B00009F90DE000BF00BF0298FBF709FF00BF3D
:1043C00006E000BF00BF0298FBF702FF00BF00BF7E
:1043D00000BF05B0BDE8F08F04F4007008B1358966
:1043E00000E00125D6F8009011E0D9F8080003900C
:1043F000D9F8040004900E985B4652460090384667
:104400000399FFF7B3FEDDF81090681E85B2002D0A
:10441000EBD100BF00BF00BFFBF7D6FE029000BF8C
:1044200000BF0B480078401E0949087000BF00BF5C
:104430000298FBF7CDFE00BF00BF00BF04F40040B0
:1044400008B9FDF799FE00210F98018000BFC0E771
:1044500024010020E800002000210AE001EB4102D5
:10446000054B03EB820000220281026042604A1C7D
:10447000D1B22029F2D3704714E8002010B50446C9
:1044800094F83700FFF712FF94F8370005490978D0
:10449000884203D1204600F027F802E0204600F0D1
:1044A00003F810BD0A01002010B590F8373003EB77
:1044B00043030C4C04EB83010B893BB901230B81B3
:1044C0000023C36003610860486009E00B895B1C3E
:1044D0000B810B68C360002303610A6810610860E8
:1044E00010BD000014E8002010B590F8373003EB41
:1044F00043030B4C04EB83010B893BB901230B8174
:104500000023C36003610860486008E00B895B1CFE
:104510000B810023C3604A680261D060486010BD0F
:1045200014E8002010B501460C8924B1012C03D0F9
:10453000022C0CD101E000BF14E008684A68026157
:104540000024C4601461D0600A6048600AE0086812
:104550004A68C36800241C61C4600261D0600B60BB
:10456000486000BF00BF10BD2DE9F041054695F839
:10457000370000EB4000124901EB80042F69EE6820
:1045800087B946B9002020812060606095F8370027
:10459000FFF79EFE0EE02089401E20810020306142
:1045A000266007E02089401E2081FE600EB967600A
:1045B00000E0376100202861E860BDE8F08100007C
:1045C00014E8002010B5002400BFFBF7FDFD0446F1
:1045D00000BF00200C4908700C480D4908600846CF
:1045E0000068D0F88C00401C0968C1F88C000948AC
:1045F0000068401C07490860FBF7E5FE00BF204645
:10460000FBF7E6FD00BF10BD0B01002050E70020C6
:10461000800100203801002010B5044800780128EE
:1046200003D1FBF787FF0249086010BD2401002079
:104630001801002010B50A48007880B9FBF77AFF0E
:1046400008490968441A08480068A04201D206488F
:10465000046006480068A04201D20448046010BD0E
:1046600024010020180100201C010020200100204E
:1046700070B5054600262E480078012800D070BD90
:1046800000BF00BFFBF7A0FD064600BF00BF2C68BF
:104690003CB900BF00BF3046FBF79AFD00BF00BF2A
:1046A000EDE72448844207D100BF00BF3046FBF746
:1046B0008FFD00BF00BFE2E7606D10B1606D401E6E
:1046C0006065606D38B100BF00BF3046FBF780FD0C
:1046D00000BF00BFD3E72889022807DA00BF00BF68
:1046E0003046FBF775FD00BF00BFC8E712480078F1
:1046F000002807DD00BF00BF3046FBF769FD00BFA3
:1047000000BFBCE72846FFF70DFF2C68206D18B9E5
:104710000A480068606501E0206D606500BF00BF69
:104720003046FBF755FD00BF00BF00BFA7E7000004
:104730002C01002098E60020240100202801002000
:104740000021034A1160034A118001807047000074
:1047500030010020340100202DE9FF5F0446884627
:1047600091461D460020019000BF00BFFBF72CFDC5
:10477000019000BF00BF04F10807388900284FD11D
:104780000420012804D0022814D0042834D123E0C6
:10479000206AFF280DD100BF00BF0198FBF718FD6C
:1047A00000BF00BF46F6C5502880002004B0BDE819
:1047B000F09F22E04FF6FF71206A88420BD100BFC4
:1047C00000BF0198FBF704FD00BF00BF46F6C550CF
:1047D00028800020EAE710E0206A401C58B900BF9A
:1047E00000BF0198FBF7F4FC00BF00BF46F6C550C0
:1047F00028800020DAE700E000BF00BF206A401CEC
:104800002062D4F820A0C4F8249000BF00BF019813
:10481000FBF7DEFC00BF00BF002028805046C5E744
:1048200000BF25480078401C2349087000BF00BF26
:104830000198FBF7CDFC00BF00BF00BF08F400707B
:1048400008B13E8900E00126D7F800B011E0DBF89E
:1048500008000290DBF80400039000231A46CDF80C
:10486000009020460299FFF781FCDDF80CB0701E25
:1048700086B2002EEBD1D4F820A000BF00BF00BF4D
:10488000FBF7A2FC019000BF00BF0B480078401E60
:104890000949087000BF00BF0198FBF799FC00BFF1
:1048A00000BF00BF08F4004008B9FDF765FC002018
:1048B000288050467AE700002401002070B50446A5
:1048C0000D4645B12A462146064800F06DFD0320FD
:1048D00084F8360002E0022084F836002046FFF714
:1048E00043FE70BD540100200021C0F8AC100949FE
:1048F000096819B90021C0F8B01007E00549096836
:10490000C0F8B01003490968C1F8AC00014908605B
:10491000704700003C010020D0F8AC20D0F8B01067
:104920004AB90D4B196011B10023C1F8AC30002316
:10493000C0F8B0300FE029B90023C2F8B030C0F899
:10494000AC3008E0C2F8B010C1F8AC200023C0F8C9
:10495000B030C0F8AC3070473C0100200021044A60
:104960001160044A1180044A116001807047000000
:104970003C010020400100203801002070B50446B1
:1049800000202060A0606060E06020616061A06144
:10499000E06124A0206200206062A062E0622064E6
:1049A000A065A4F85C00002104F16000FFF714FA90
:1049B000002020676067E067A4F88400C4F88000E6
:1049C000002506E0002104F1780040F82510681C5D
:1049D000C5B2002DF6D0002034342061E066206797
:1049E000606084F8520020816061A061E061206213
:1049F000A4F85400A4F85600A065E065FBF79AFD02
:104A00000646266600206066606720706070A070B1
:104A10002020E0700020A067E06704A0C4F88000B8
:104A2000343C70BD3F5461736B00000020000000F7
:104A30002DE9FC4704460F4690469946DDE90A6594
:104A40004FF0000A0020288000BF00BF00BFFBF726
:104A5000BBFB824600BF00BF75480078401C74490C
:104A6000087000BF00BF5046FBF7B2FB00BF00BF9D
:104A700000BF0CB96F48046894F8360008287DD24E
:104A8000DFE800F004053E3F0607404100BF00BFDD
:104A900000BF4B464246394604F16000CDE900654F
:104AA000FFF7A2F900BF00BF00BFFBF78DFB8246F6
:104AB00000BF00BF5E480078401E5D490870084690
:104AC0000078A0B95C480088002809DD00BF00BF5D
:104AD0005046FBF77DFB00BF00BFFFF773FD0DE005
:104AE00000BF00BF5046FBF773FB00BF06E000BFEE
:104AF00000BF5046FBF76CFB00BF00BF00BF93E058
:104B000000BF00BF00BF94F83400022821D1434603
:104B10003A46214600200096FFF728FB00BF00BF61
:104B200000BFFBF751FB824600BF00BF4048007842
:104B3000401E3F49087000BF00BF5046FBF748FBCE
:104B400000BF00BF00BF09F4004090BBFDF714FB9D
:104B500038E04B464246394604F16000CDE9006535
:104B6000FFF742F900BF00BF00BFFBF72DFB8246F5
:104B700000BF00BF2E480078401E00E023E02C4913
:104B8000087008460078A8B92B480088002809DD7D
:104B900000BF00BF5046FBF71BFB00BF00BFFFF785
:104BA00011FD0EE000BF00BF5046FBF711FB00BF38
:104BB00007E007E000BF00BF5046FBF709FB00BF5E
:104BC00000BF00BF30E000BF00BF00BFFBF7FCFA32
:104BD000824600BF00BF16480078401E1449087086
:104BE00008460078A0B914480088002809DD00BFF5
:104BF00000BF5046FBF7ECFA00BF00BFFFF7E2FC36
:104C00000DE000BF00BF5046FBF7E2FA00BF06E030
:104C100000BF00BF5046FBF7DBFA00BF00BF00BF7C
:104C200046F62D60288000BF00BFBDE8FC8700006D
:104C3000240100207C010020E800002070B504461B
:104C40000D46002600BF00BFFBF7BEFA064600BFB8
:104C500000BF0020288094F8360008287BD2DFE8C7
:104C600000F0040506071243556700BF00BF00BFF0
:104C700000BF00BF3046FBF7ABFA00BF00BF47F2F2
:104C80005310288072E000BF3B480078401C3A492E
:104C9000087000BF00BF3046FBF79AFA00BF00BFA4
:104CA00000BF14F8860F401E207014F8860928B93A
:104CB000002084F836002046FFF7E0FB00BF00BF6D
:104CC00000BFFBF781FA064600BF00BF2A48007804
:104CD000401E2949087000BF00BF3046FBF778FA34
:104CE00000BF00BF00BF41E014F8860F401E2070D7
:104CF00014F8860910B9012084F8360000BF00BFFF
:104D00003046FBF765FA00BF00BF2FE014F8860FAE
:104D1000401E207014F8860910B9022084F836006D
:104D200000BF00BF3046FBF753FA00BF00BF1DE0D5
:104D300014F8860F401E207014F8860910B903205D
:104D400084F8360000BF00BF3046FBF741FA00BFD1
:104D500000BF0BE0FFE700BF00BF3046FBF738FAAB
:104D600000BF00BF46F62D60288070BD00BFFDF774
:104D700003FA00BFF9E700002401002008B5044849
:104D80000068FDF76FFE69460020FDF737FC08BD9F
:104D90007C0100202DE9F8430446884617461D464D
:104DA0004FF0000900BF00BF00BFFBF70DFA8146BE
:104DB00000BF00BFFE480078401CFD49087000BFDE
:104DC00000BF4846FBF704FA00BF00BF00BF0CB9A4
:104DD000F848046827640020288094F836000828E2
:104DE00071D2DFE800F00405EBEC0607EDEE00BF42
:104DF00000BF00BF0420012804D0022839D00428B5
:104E00006FD170E0606CFF2832D100BF00BF00BFDF
:104E1000FBF7DAF9814600BF00BFE5480078401E85
:104E2000E349087008460078A0B9E34800880028E4
:104E300009DD00BF00BF4846FBF7CAF900BF00BF4D
:104E4000FFF7C0FB0DE000BF00BF4846FBF7C0F90D
:104E500000BF06E000BF00BF4846FBF7B9F900BF3E
:104E600000BF00BF46F6C55028800020BDE8F8838B
:104E700071E04FF6FF71606C884233D100BF00BF14
:104E800000BFFBF7A1F9814600BF00BFC84800780A
:104E9000401EC749087008460078A8B9C64800886F
:104EA000002809DD00BF00BF4846FBF791F900BFAD
:104EB00000BFFFF787FB0EE000BF00BF4846FBF7CF
:104EC00087F900BF07E08DE100BF00BF4846FBF750
:104ED0007FF900BF00BF00BF46F6C5502880002004
:104EE000C4E737E037E0606C401C88BB00BF00BF00
:104EF00000BFFBF769F9814600BF00BFAC480078EE
:104F0000401EAB49087008460078A0B9AA4800883E
:104F1000002809DD00BF00BF4846FBF759F900BF74
:104F200000BFFFF74FFB0DE000BF00BF4846FBF797
:104F30004FF900BF06E000BF00BF4846FBF748F945
:104F400000BF00BF00BF46F6C550288000208DE797
:104F5000FFE700E000BF00BF606C401C6064666C4F
:104F600000BF00BF00BFFBF72FF9814600BF00BFA5
:104F70008F480078401E8E49087008460078A0B916
:104F80008D480088002809DD00BF00BF4846FBF7B8
:104F90001FF900BF00BFFFF715FB0DE000BF00BF0A
:104FA0004846FBF715F900BF06E000BF00BF4846C2
:104FB000FBF70EF900BF00BF00BF45E100BF00BF17
:104FC00000BF94F83400072823D100231A46214655
:104FD00018460097FFF7CAF8666C00BF00BF00BF15
:104FE000FBF7F2F8814600BF00BF71480078401E11
:104FF0006F49087000BF00BF4846FBF7E9F800BFE3
:1050000000BF00BF08F40040002801D1FDF7B4F84C
:10501000E7E00420012804D0022838D004286ED10B
:105020006EE0606CFF2831D100BF00BF00BFFBF70E
:10503000CBF8814600BF00BF5D480078401E5C4948
:10504000087008460078A0B95B480088002809DD90
:1050500000BF00BF4846FBF7BBF800BF00BFFFF72B
:10506000B1FA0DE000BF00BF4846FBF7B1F800BF42
:1050700006E000BF00BF4846FBF7AAF800BF00BF2C
:1050800000BF46F6C55028800020EFE670E04FF6DE
:10509000FF71606C884231D100BF00BF00BFFBF7D9
:1050A00093F8814600BF00BF41480078401E404948
:1050B000087008460078A0B93F480088002809DD3C
:1050C00000BF00BF4846FBF783F800BF00BFFFF7F3
:1050D00079FA0DE000BF00BF4846FBF779F800BF42
:1050E00006E000BF00BF4846FBF772F800BF00BFF4
:1050F00000BF46F6C55028800020B7E638E036E00D
:10510000606C401C88BB00BF00BF00BFFBF75CF8B1
:10511000814600BF00BF26480078401E2449087021
:1051200008460078A0B924480088002809DD00BF9F
:1051300000BF4846FBF74CF800BF00BFFFF742FA3C
:105140000DE000BF00BF4846FBF742F800BF06E095
:1051500000BF00BF4846FBF73BF800BF00BF00BFE1
:1051600046F6C5502880002080E6FFE700E000BF3B
:1051700000BF606C401C6064666C00BF00BF00BF75
:10518000FBF722F8814600BF00BF09480078401EA7
:105190000749087008460078D8B9074800880028F1
:1051A00010DD00BF00BF4846FBF712F800BF05E066
:1051B000240100207C010020E800002000BFFFF750
:1051C00001FA0DE000BF00BF4846FBF701F800BF41
:1051D00006E000BF00BF4846FAF7FAFF00BF00BF75
:1051E00000BF31E000BF00BF00BFFAF7EDFF81460E
:1051F00000BF00BF16480078401E154908700846D9
:105200000078A0B913480088002809DD00BF00BF5E
:105210004846FAF7DDFF00BF00BFFFF7D3F90DE006
:1052200000BF00BF4846FAF7D3FF00BF06E000BF4B
:1052300000BF4846FAF7CCFF00BF00BF00BF46F6EC
:105240002D602880002600BF00BF30460EE600001B
:1052500024010020E800002070B504460D46002619
:1052600000BF00BFFAF7B0FF064600BF00BF0CB991
:105270004B4804684A48006884420ED14948007887
:1052800000280ADD00BF00BF3046FAF7A1FF00BFCB
:1052900000BF46F66350288070BD0020288094F837
:1052A000360008286CD2DFE800F004313F4D5B5C2B
:1052B0005D5E00BF3B480078401C3A49087000BF63
:1052C00000BF3046FAF784FF00BF00BF00BF0420D4
:1052D00084F83600012084F886002046FFF744F960
:1052E00000BF00BF00BFFAF76FFF064600BF00BF58
:1052F0002C480078401E2B49087000BF00BF304684
:10530000FAF766FF00BF00BF00BF44E0052084F845
:105310003600012084F8860000BF00BF3046FAF74F
:1053200057FF00BF00BF36E0062084F8360001209A
:1053300084F8860000BF00BF3046FAF749FF00BF7F
:1053400000BF28E0072084F83600012084F886009A
:1053500000BF00BF3046FAF73BFF00BF00BF1AE0B6
:1053600000BF00BF00BF94F88600401C84F8860090
:1053700000BF00BF3046FAF72BFF00BF00BF0AE0B6
:1053800000BF00BF3046FAF723FF00BF00BF46F65C
:105390002D60288080E700BFFCF7EEFE00BF7BE7B2
:1053A0007C0100202401002070B51546066846B92E
:1053B0008D6400264E618E61C86101600126868081
:1053C00033E0046802682B4624E0966C9E421DD3AD
:1053D00096696EB98B6400268E614A61C861966CCD
:1053E000F61A9664916101608688761C86800CE0CE
:1053F00094698B648C614A61C861966CF61A9664F4
:10540000916161618688761C868070BD966C9B1B5D
:1054100014465269002AD8D18B648C6100264E61F3
:10542000C86161618688761C868000BFEDE7000058
:105430002DE9F04104460D4690461F46B8F1040F91
:105440000ED1284800682E1A16F5803F01D8002E8C
:105450003CD10020A06447F27E203880BDE8F08176
:10546000B8F1080F29D11F49E06C0968081AA84251
:1054700005D92E461B4800682844E06426E01949F7
:10548000E06C0968081A2E1A16F5803F00D886B914
:105490001449E06C0968081AB0FBF5F005FB0050F0
:1054A000E16C0844E0640020A06447F27E2038806C
:1054B000D4E7E06C2844E06408E00DB12E4605E036
:1054C0000020A06447F27E203880C7E7012084F8DE
:1054D0003600324621460448FFF766FF0020388038
:1054E00000BFBBE7440100204C01002030B5C26979
:1054F00083694169ABB929B900241460948084643C
:10550000C4611EE000248C618C6C856C2C448C641E
:1055100011609488641E9480002444618464C46192
:105520000FE0596121B18B618C6C856C2C448C64CB
:10553000002484619488641E9480002444618464FF
:10554000C46130BD2DE9F0474FF0000900BF00BF36
:1055500000BFFAF739FE814600BF00BF3848007827
:10556000401C3749087000BF00BF4846FAF730FEBC
:1055700000BF00BF00BFFAF7DDFF06460027314D30
:105580002C683CB3A06C401EA0641FE0781C87B25E
:1055900094F83600012806D1002084F83600204611
:1055A000FEF76CFF06E094F83600052802D10420CF
:1055B00084F83600606928602C6814B90020A8803F
:1055C00007E0A888401EA8800020A061A06C0028E9
:1055D000DCD000BFEF80FAF7ADFFA0EB060800BFFC
:1055E00000BF00BFFAF7F0FD814600BF00BF1448BE
:1055F0000078401E1249087008460078A0B9124889
:105600000088002809DD00BF00BF4846FAF7E0FD2A
:1056100000BF00BFFEF7D6FF0DE000BF00BF484649
:10562000FAF7D6FD00BF06E000BF00BF4846FAF714
:10563000CFFD00BF00BF00BF4046BDE8F0870000BF
:10564000240100204C010020E80000202DE9F04753
:105650004FF0000900BF00BF00BFFAF7B5FD81465B
:1056600000BF00BF47480078401C4649087000BF93
:1056700000BF4846FAF7ACFD00BF00BF00BFFAF715
:1056800059FF06460027404D2C68002C45D0A06CE1
:10569000401EA0643DE0781C87B294F836000328D1
:1056A00015D10020A065A4F85C00FAF743FF206440
:1056B0002046FEF722FD2046FEF7E0FE00203434AF
:1056C000A07003206070002004F8340915E094F8FD
:1056D0003600072811D10020A065A4F85C00FAF775
:1056E00029FF20642046FEF708FD04203434A07012
:1056F00003206070002004F83409606928602C6879
:1057000014B90020A88007E0A888401EA8800020C7
:10571000A061A06C0028BED000BFEF80FAF70AFF9E
:10572000A0EB060800BF00BF00BFFAF74DFD8146A1
:1057300000BF00BF13480078401E12490870084699
:105740000078A0B911480088002809DD00BF00BF1B
:105750004846FAF73DFD00BF00BFFEF733FF0DE0FE
:1057600000BF00BF4846FAF733FD00BF06E000BFA8
:1057700000BF4846FAF72CFD00BF00BF00BF4046FF
:10578000BDE8F0872401002054010020E80000203B
:105790001CB5002761E001AB6A4600210846FDF711
:1057A0006DF9BDF80400002857D12C480078012875
:1057B00053D100BF00BF00BFFAF706FD074600BF88
:1057C00000BF27480078401C2549087000BF00BF73
:1057D0003846FAF7FDFC00BF00BF00BF2148006853
:1057E000401C2049086000BF00BF00BFFAF7ECFC76
:1057F000074600BF00BF1A480078401E18490870CD
:1058000008460078A0B918480088002809DD00BFC4
:1058100000BF3846FAF7DCFC00BF00BFFEF7D2FE3F
:105820000DE000BF00BF3846FAF7D2FC00BF06E02B
:1058300000BF00BF3846FAF7CBFC00BF00BF00BF77
:10584000FFF780FE0646FFF701FF0546741907487B
:105850000068A04201D2054804609CE7DD000020FA
:105860002401002044010020E8000020480100201D
:1058700010B58AB00446002020490860204908601D
:10588000204908601E498880C8801E498880C880D9
:105890001D48006820B947F2122020800AB010BDD0
:1058A0001A4800681A490968884203D247F213204F
:1058B0002080F3E7174800781F2803D347F2112010
:1058C0002080EBE70B2000210591CDE9070406912C
:1058D00008460E490A68104909680B4B1B68CDE958
:1058E0000131CDE903200B48007800230B4A0CA1BD
:1058F00000901048FCF748FD00BFCFE744010020AE
:105900004C01002054010020289B0008309B000817
:105910001C9B0008249B00082C9B00089157000842
:1059200075432F4F532D494949205469636B2054C7
:1059300061736B0094E9002010B58AB00446002022
:105940002F4908602F4908602F4908802F480068B8
:1059500040B12F4800682D490968B0FBF1F02D498E
:10596000086006E02A4800680A21B0FBF1F02949E6
:105970000860284800682849086000202749086016
:1059800027490860224627A12A48FCF701F9208808
:1059900008B10AB010BD2848006818B947F247306E
:1059A0002080F6E72548006825490968884203D227
:1059B00047F248302080ECE7224800781F2803D3C4
:1059C00047F246302080E4E70B20002105910A468B
:1059D000CDE907040691194800681B490968164B70
:1059E0001B68CDE90131CDE9030216480078002398
:1059F000164A17A100901C48FCF7C6FC00BFC8E778
:105A00005C01002064010020600100203C9B000834
:105A1000209B000874010020780100207001002004
:105A20006C0100204F5320546D72204D75746578C1
:105A3000000000004CEA0020409B0008489B000842
:105A40001C9B0008389B0008449B0008855A0008EE
:105A500075432F4F532D4949492054696D65722074
:105A60005461736B0000000078EA00200EB502A8B4
:105A700001AB0022114600900148FCF7EBF80EBD87
:105A80004CEA00201CB53FE001AB6A460021084605
:105A9000FCF7F4FFFFF7EAFFFAF74CFD06461B4858
:105AA0000068401C19490860194804681FE001A8F3
:105AB000FCF7B2FBD4F81080A069401EA061A06979
:105AC00080B9A08C022802D1206AA06105E020469E
:105AD00000F022F8032084F82600A56815B12046BE
